{
  "contractName": "Channel",
  "abi": [
    {
      "constant": true,
      "inputs": [],
      "name": "channelRecipient",
      "outputs": [
        {
          "name": "",
          "type": "address"
        }
      ],
      "payable": false,
      "stateMutability": "view",
      "type": "function"
    },
    {
      "constant": true,
      "inputs": [],
      "name": "channelSender",
      "outputs": [
        {
          "name": "",
          "type": "address"
        }
      ],
      "payable": false,
      "stateMutability": "view",
      "type": "function"
    },
    {
      "constant": true,
      "inputs": [],
      "name": "startDate",
      "outputs": [
        {
          "name": "",
          "type": "uint256"
        }
      ],
      "payable": false,
      "stateMutability": "view",
      "type": "function"
    },
    {
      "constant": true,
      "inputs": [],
      "name": "channelTimeout",
      "outputs": [
        {
          "name": "",
          "type": "uint256"
        }
      ],
      "payable": false,
      "stateMutability": "view",
      "type": "function"
    },
    {
      "inputs": [
        {
          "name": "to",
          "type": "address"
        },
        {
          "name": "timeout",
          "type": "uint256"
        }
      ],
      "payable": true,
      "stateMutability": "payable",
      "type": "constructor"
    },
    {
      "constant": false,
      "inputs": [
        {
          "name": "h",
          "type": "bytes32"
        },
        {
          "name": "v",
          "type": "uint8"
        },
        {
          "name": "r",
          "type": "bytes32"
        },
        {
          "name": "s",
          "type": "bytes32"
        },
        {
          "name": "value",
          "type": "uint256"
        }
      ],
      "name": "CloseChannel",
      "outputs": [],
      "payable": false,
      "stateMutability": "nonpayable",
      "type": "function"
    },
    {
      "constant": false,
      "inputs": [],
      "name": "ChannelTimeout",
      "outputs": [],
      "payable": false,
      "stateMutability": "nonpayable",
      "type": "function"
    }
  ],
  "bytecode": "0x608060408181528061039783398101604052805160209091015160018054600160a060020a03909316600160a060020a03199384161790556000805490921633179091554260025560035561033e806100596000396000f3006080604052600436106100775763ffffffff7c010000000000000000000000000000000000000000000000000000000060003504166304758e79811461007c578063075aa0c4146100ad5780630b97bc86146100c25780632ef2d55e146100e957806339658245146100fe578063adacb0fa14610115575b600080fd5b34801561008857600080fd5b5061009161013c565b60408051600160a060020a039092168252519081900360200190f35b3480156100b957600080fd5b5061009161014b565b3480156100ce57600080fd5b506100d761015a565b60408051918252519081900360200190f35b3480156100f557600080fd5b506100d7610160565b34801561010a57600080fd5b50610113610166565b005b34801561012157600080fd5b5061011360043560ff60243516604435606435608435610187565b600154600160a060020a031681565b600054600160a060020a031681565b60025481565b60035481565b4260035460025401111561017957600080fd5b600054600160a060020a0316ff5b604080516000808252602080830180855289905260ff881683850152606083018790526080830186905292519092839260019260a08083019392601f19830192908190039091019086865af11580156101e4573d6000803e3d6000fd5b5050604051601f190151600054909350600160a060020a038085169116148015915061021e5750600154600160a060020a03838116911614155b1561022857600080fd5b50604080516c010000000000000000000000003002815260148101849052905190819003603401902086811461025d57600080fd5b600081815260046020526040902054600160a060020a031615156102b4576000818152600460205260409020805473ffffffffffffffffffffffffffffffffffffffff1916600160a060020a038416179055610309565b600081815260046020526040902054600160a060020a0383811691161461030957600154604051600160a060020a039091169084156108fc029085906000818181858888f19350505050151561017957600080fd5b505050505050505600a165627a7a723058208e7f9914bde1c80ca3647f03742bae1da001f21d5303f865cecf6593ce8290cd0029",
  "source": "pragma solidity ^0.4.26;\n\ncontract Channel {\n\n\taddress public channelSender;\n\taddress public channelRecipient;\n\tuint public startDate;\n\tuint public channelTimeout;\n\tmapping (bytes32 => address) signatures;\n\n\tfunction Channel(address to, uint timeout) payable {\n\t\tchannelRecipient = to;\n\t\tchannelSender = msg.sender;\n\t\tstartDate = now;\n\t\tchannelTimeout = timeout;\n\t}\n\t//hash verification response signature\n\tfunction CloseChannel(bytes32 h, uint8 v, bytes32 r, bytes32 s, uint value){\n\n\t\taddress signer;\n\t\tbytes32 proof;\n\n\t\t// get signer from signature\n\t\tsigner = ecrecover(h, v, r, s);\n\n\t\t// signature is invalid, throw\n\t\tif (signer != channelSender && signer != channelRecipient) throw;\n\n\t\tproof = sha3(this, value);\n\n\t\t// signature is valid but doesn't match the data provided\n\t\tif (proof != h) throw;\n\n\t\tif (signatures[proof] == 0)\n\t\t\tsignatures[proof] = signer;\n\t\telse if (signatures[proof] != signer){\n\t\t\t// channel completed, both signatures provided\n\t\t\tif (!channelRecipient.send(value)) throw;\n\t\t\tselfdestruct(channelSender);\n\t\t}\n\n\t}\n\n\tfunction ChannelTimeout(){\n\t\tif (startDate + channelTimeout > now)\n\t\t\tthrow;\n\n\t\tselfdestruct(channelSender);\n\t}\n\n}",
  "sourcePath": "/home/jeffrey/token/ido-smartcontract/contracts/payment-channel.sol",
  "compiler": {
    "name": "solc",
    "version": "0.4.26+commit.4563c3fc.Emscripten.clang"
  },
  "schemaVersion": "3.2.5",
  "updatedAt": "2020-10-01T14:38:58.704Z",
  "networkType": "ethereum",
  "devdoc": {
    "methods": {}
  },
  "userdoc": {
    "methods": {}
  }
}