{
  "contractName": "ConvertLib",
  "abi": [
    {
      "constant": true,
      "inputs": [
        {
          "name": "amount",
          "type": "uint256"
        },
        {
          "name": "conversionRate",
          "type": "uint256"
        }
      ],
      "name": "convert",
      "outputs": [
        {
          "name": "convertedAmount",
          "type": "uint256"
        }
      ],
      "payable": false,
      "stateMutability": "pure",
      "type": "function"
    }
  ],
  "bytecode": "0x60a861002f600b82828239805160001a6073146000811461001f57610021565bfe5b5030600052607381538281f300730000000000000000000000000000000000000000301460806040526004361060555763ffffffff7c010000000000000000000000000000000000000000000000000000000060003504166396e4ee3d8114605a575b600080fd5b60666004356024356078565b60408051918252519081900360200190f35b02905600a165627a7a7230582095068751319302471f149b11c1434b87c93654ad4a5d8565a0a987c0430fe67c0029",
  "source": "pragma solidity >=0.4.22 <0.7.0;\n\nlibrary ConvertLib{\n\tfunction convert(uint amount,uint conversionRate) public pure returns (uint convertedAmount)\n\t{\n\t\treturn amount * conversionRate;\n\t}\n}\n",
  "sourcePath": "/home/nari/private-git/ido-smartcontract/contracts/ConvertLib.sol",
  "compiler": {
    "name": "solc",
    "version": "0.4.26+commit.4563c3fc.Emscripten.clang"
  },
  "schemaVersion": "3.2.4",
  "updatedAt": "2020-09-30T14:14:51.860Z",
  "networkType": "ethereum",
  "devdoc": {
    "methods": {}
  },
  "userdoc": {
    "methods": {}
  }
}