{
  "contractName": "DataUnion",
  "abi": [
    {
      "constant": true,
      "inputs": [],
      "name": "name",
      "outputs": [
        {
          "name": "",
          "type": "string"
        }
      ],
      "payable": false,
      "stateMutability": "view",
      "type": "function"
    },
    {
      "constant": true,
      "inputs": [
        {
          "name": "tokenId",
          "type": "uint256"
        }
      ],
      "name": "getApproved",
      "outputs": [
        {
          "name": "",
          "type": "address"
        }
      ],
      "payable": false,
      "stateMutability": "view",
      "type": "function"
    },
    {
      "constant": true,
      "inputs": [
        {
          "name": "",
          "type": "uint256"
        }
      ],
      "name": "tokenIndexToOwner",
      "outputs": [
        {
          "name": "",
          "type": "address"
        }
      ],
      "payable": false,
      "stateMutability": "view",
      "type": "function"
    },
    {
      "constant": false,
      "inputs": [
        {
          "name": "from",
          "type": "address"
        },
        {
          "name": "to",
          "type": "address"
        },
        {
          "name": "tokenId",
          "type": "uint256"
        }
      ],
      "name": "safeTransferFrom",
      "outputs": [],
      "payable": false,
      "stateMutability": "nonpayable",
      "type": "function"
    },
    {
      "constant": true,
      "inputs": [],
      "name": "symbol",
      "outputs": [
        {
          "name": "",
          "type": "string"
        }
      ],
      "payable": false,
      "stateMutability": "view",
      "type": "function"
    },
    {
      "constant": false,
      "inputs": [
        {
          "name": "to",
          "type": "address"
        },
        {
          "name": "approved",
          "type": "bool"
        }
      ],
      "name": "setApprovalForAll",
      "outputs": [],
      "payable": false,
      "stateMutability": "nonpayable",
      "type": "function"
    },
    {
      "constant": true,
      "inputs": [
        {
          "name": "",
          "type": "uint256"
        }
      ],
      "name": "tokenIndexToApproved",
      "outputs": [
        {
          "name": "",
          "type": "address"
        }
      ],
      "payable": false,
      "stateMutability": "view",
      "type": "function"
    },
    {
      "constant": false,
      "inputs": [
        {
          "name": "from",
          "type": "address"
        },
        {
          "name": "to",
          "type": "address"
        },
        {
          "name": "tokenId",
          "type": "uint256"
        },
        {
          "name": "_data",
          "type": "bytes"
        }
      ],
      "name": "safeTransferFrom",
      "outputs": [],
      "payable": false,
      "stateMutability": "nonpayable",
      "type": "function"
    },
    {
      "constant": true,
      "inputs": [
        {
          "name": "",
          "type": "address"
        },
        {
          "name": "",
          "type": "uint256"
        }
      ],
      "name": "test",
      "outputs": [
        {
          "name": "",
          "type": "uint256"
        }
      ],
      "payable": false,
      "stateMutability": "view",
      "type": "function"
    },
    {
      "constant": true,
      "inputs": [
        {
          "name": "owner",
          "type": "address"
        },
        {
          "name": "operator",
          "type": "address"
        }
      ],
      "name": "isApprovedForAll",
      "outputs": [
        {
          "name": "",
          "type": "bool"
        }
      ],
      "payable": false,
      "stateMutability": "view",
      "type": "function"
    },
    {
      "anonymous": false,
      "inputs": [
        {
          "indexed": false,
          "name": "owner",
          "type": "address"
        },
        {
          "indexed": false,
          "name": "tokenId",
          "type": "uint256"
        }
      ],
      "name": "Mint",
      "type": "event"
    },
    {
      "anonymous": false,
      "inputs": [
        {
          "indexed": true,
          "name": "from",
          "type": "address"
        },
        {
          "indexed": true,
          "name": "to",
          "type": "address"
        },
        {
          "indexed": true,
          "name": "tokenId",
          "type": "uint256"
        }
      ],
      "name": "Transfer",
      "type": "event"
    },
    {
      "anonymous": false,
      "inputs": [
        {
          "indexed": true,
          "name": "owner",
          "type": "address"
        },
        {
          "indexed": true,
          "name": "approved",
          "type": "address"
        },
        {
          "indexed": true,
          "name": "tokenId",
          "type": "uint256"
        }
      ],
      "name": "Approval",
      "type": "event"
    },
    {
      "anonymous": false,
      "inputs": [
        {
          "indexed": true,
          "name": "owner",
          "type": "address"
        },
        {
          "indexed": true,
          "name": "operator",
          "type": "address"
        },
        {
          "indexed": false,
          "name": "approved",
          "type": "bool"
        }
      ],
      "name": "ApprovalForAll",
      "type": "event"
    },
    {
      "constant": true,
      "inputs": [
        {
          "name": "_interfaceID",
          "type": "bytes4"
        }
      ],
      "name": "supportsInterface",
      "outputs": [
        {
          "name": "",
          "type": "bool"
        }
      ],
      "payable": false,
      "stateMutability": "view",
      "type": "function"
    },
    {
      "constant": true,
      "inputs": [],
      "name": "totalSupply",
      "outputs": [
        {
          "name": "",
          "type": "uint256"
        }
      ],
      "payable": false,
      "stateMutability": "view",
      "type": "function"
    },
    {
      "constant": true,
      "inputs": [
        {
          "name": "_owner",
          "type": "address"
        }
      ],
      "name": "balanceOf",
      "outputs": [
        {
          "name": "",
          "type": "uint256"
        }
      ],
      "payable": false,
      "stateMutability": "view",
      "type": "function"
    },
    {
      "constant": true,
      "inputs": [
        {
          "name": "_tokenId",
          "type": "uint256"
        }
      ],
      "name": "ownerOf",
      "outputs": [
        {
          "name": "owner",
          "type": "address"
        }
      ],
      "payable": false,
      "stateMutability": "view",
      "type": "function"
    },
    {
      "constant": false,
      "inputs": [
        {
          "name": "_to",
          "type": "address"
        },
        {
          "name": "_tokenId",
          "type": "uint256"
        }
      ],
      "name": "approve",
      "outputs": [],
      "payable": false,
      "stateMutability": "nonpayable",
      "type": "function"
    },
    {
      "constant": false,
      "inputs": [
        {
          "name": "_to",
          "type": "address"
        },
        {
          "name": "_tokenId",
          "type": "uint256"
        }
      ],
      "name": "transfer",
      "outputs": [],
      "payable": false,
      "stateMutability": "nonpayable",
      "type": "function"
    },
    {
      "constant": false,
      "inputs": [
        {
          "name": "_from",
          "type": "address"
        },
        {
          "name": "_to",
          "type": "address"
        },
        {
          "name": "_tokenId",
          "type": "uint256"
        }
      ],
      "name": "transferFrom",
      "outputs": [],
      "payable": false,
      "stateMutability": "nonpayable",
      "type": "function"
    },
    {
      "constant": true,
      "inputs": [
        {
          "name": "_owner",
          "type": "address"
        }
      ],
      "name": "tokensOfOwner",
      "outputs": [
        {
          "name": "",
          "type": "uint256[]"
        }
      ],
      "payable": false,
      "stateMutability": "view",
      "type": "function"
    },
    {
      "constant": false,
      "inputs": [],
      "name": "mint",
      "outputs": [
        {
          "name": "",
          "type": "uint256"
        }
      ],
      "payable": false,
      "stateMutability": "nonpayable",
      "type": "function"
    },
    {
      "constant": true,
      "inputs": [
        {
          "name": "boeb",
          "type": "address"
        }
      ],
      "name": "getToken",
      "outputs": [
        {
          "name": "imageUrl",
          "type": "string"
        },
        {
          "name": "dataType",
          "type": "string"
        },
        {
          "name": "data",
          "type": "string"
        }
      ],
      "payable": false,
      "stateMutability": "view",
      "type": "function"
    },
    {
      "constant": true,
      "inputs": [],
      "name": "getTokenFromOwner",
      "outputs": [
        {
          "name": "",
          "type": "uint256[]"
        }
      ],
      "payable": false,
      "stateMutability": "view",
      "type": "function"
    }
  ],
  "bytecode": "0x608060405261003f6301ffc9a77c01000000000000000000000000000000000000000000000000000000000261007f640100000000026401000000009004565b61007a6380ac58cd7c01000000000000000000000000000000000000000000000000000000000261007f640100000000026401000000009004565b61013c565b63ffffffff7c010000000000000000000000000000000000000000000000000000000002817bffffffffffffffffffffffffffffffffffffffffffffffffffffffff1916141515156100d057600080fd5b6001600080837bffffffffffffffffffffffffffffffffffffffffffffffffffffffff19167bffffffffffffffffffffffffffffffffffffffffffffffffffffffff1916815260200190815260200160002060006101000a81548160ff02191690831515021790555050565b612221806200014c6000396000f30060806040526004361061011d576000357c0100000000000000000000000000000000000000000000000000000000900463ffffffff16806301ffc9a71461012257806306fdde0314610186578063081812fc14610216578063095ea7b3146102835780631249c58b146102d057806318160ddd146102fb5780631d36e06c1461032657806323b872dd1461039357806342842e0e14610400578063597704381461046d5780636352211e1461060157806370a082311461066e5780638462151c146106c557806395d89b411461075d578063a22cb465146107ed578063a8bd9c321461083c578063a9059cbb146108a9578063b1cbf2cc146108f6578063b88d4fde14610962578063ba14d60614610a15578063e985e9c514610a76575b600080fd5b34801561012e57600080fd5b5061016c60048036038101908080357bffffffffffffffffffffffffffffffffffffffffffffffffffffffff19169060200190929190505050610af1565b604051808215151515815260200191505060405180910390f35b34801561019257600080fd5b5061019b610dcb565b6040518080602001828103825283818151815260200191508051906020019080838360005b838110156101db5780820151818401526020810190506101c0565b50505050905090810190601f1680156102085780820380516001836020036101000a031916815260200191505b509250505060405180910390f35b34801561022257600080fd5b5061024160048036038101908080359060200190929190505050610e04565b604051808273ffffffffffffffffffffffffffffffffffffffff1673ffffffffffffffffffffffffffffffffffffffff16815260200191505060405180910390f35b34801561028f57600080fd5b506102ce600480360381019080803573ffffffffffffffffffffffffffffffffffffffff16906020019092919080359060200190929190505050610e55565b005b3480156102dc57600080fd5b506102e5610e78565b6040518082815260200191505060405180910390f35b34801561030757600080fd5b50610310610e88565b6040518082815260200191505060405180910390f35b34801561033257600080fd5b5061035160048036038101908080359060200190929190505050610e90565b604051808273ffffffffffffffffffffffffffffffffffffffff1673ffffffffffffffffffffffffffffffffffffffff16815260200191505060405180910390f35b34801561039f57600080fd5b506103fe600480360381019080803573ffffffffffffffffffffffffffffffffffffffff169060200190929190803573ffffffffffffffffffffffffffffffffffffffff16906020019092919080359060200190929190505050610ec3565b005b34801561040c57600080fd5b5061046b600480360381019080803573ffffffffffffffffffffffffffffffffffffffff169060200190929190803573ffffffffffffffffffffffffffffffffffffffff16906020019092919080359060200190929190505050610f74565b005b34801561047957600080fd5b506104ae600480360381019080803573ffffffffffffffffffffffffffffffffffffffff169060200190929190505050610f95565b60405180806020018060200180602001848103845287818151815260200191508051906020019080838360005b838110156104f65780820151818401526020810190506104db565b50505050905090810190601f1680156105235780820380516001836020036101000a031916815260200191505b50848103835286818151815260200191508051906020019080838360005b8381101561055c578082015181840152602081019050610541565b50505050905090810190601f1680156105895780820380516001836020036101000a031916815260200191505b50848103825285818151815260200191508051906020019080838360005b838110156105c25780820151818401526020810190506105a7565b50505050905090810190601f1680156105ef5780820380516001836020036101000a031916815260200191505b50965050505050505060405180910390f35b34801561060d57600080fd5b5061062c600480360381019080803590602001909291905050506111f2565b604051808273ffffffffffffffffffffffffffffffffffffffff1673ffffffffffffffffffffffffffffffffffffffff16815260200191505060405180910390f35b34801561067a57600080fd5b506106af600480360381019080803573ffffffffffffffffffffffffffffffffffffffff16906020019092919050505061126b565b6040518082815260200191505060405180910390f35b3480156106d157600080fd5b50610706600480360381019080803573ffffffffffffffffffffffffffffffffffffffff1690602001909291905050506112b4565b6040518080602001828103825283818151815260200191508051906020019060200280838360005b8381101561074957808201518184015260208101905061072e565b505050509050019250505060405180910390f35b34801561076957600080fd5b50610772611401565b6040518080602001828103825283818151815260200191508051906020019080838360005b838110156107b2578082015181840152602081019050610797565b50505050905090810190601f1680156107df5780820380516001836020036101000a031916815260200191505b509250505060405180910390f35b3480156107f957600080fd5b5061083a600480360381019080803573ffffffffffffffffffffffffffffffffffffffff16906020019092919080351515906020019092919050505061143a565b005b34801561084857600080fd5b5061086760048036038101908080359060200190929190505050611576565b604051808273ffffffffffffffffffffffffffffffffffffffff1673ffffffffffffffffffffffffffffffffffffffff16815260200191505060405180910390f35b3480156108b557600080fd5b506108f4600480360381019080803573ffffffffffffffffffffffffffffffffffffffff169060200190929190803590602001909291905050506115a9565b005b34801561090257600080fd5b5061090b611644565b6040518080602001828103825283818151815260200191508051906020019060200280838360005b8381101561094e578082015181840152602081019050610933565b505050509050019250505060405180910390f35b34801561096e57600080fd5b50610a13600480360381019080803573ffffffffffffffffffffffffffffffffffffffff169060200190929190803573ffffffffffffffffffffffffffffffffffffffff16906020019092919080359060200190929190803590602001908201803590602001908080601f01602080910402602001604051908101604052809392919081815260200183838082843782019150505050505091929192905050506116d9565b005b348015610a2157600080fd5b50610a60600480360381019080803573ffffffffffffffffffffffffffffffffffffffff16906020019092919080359060200190929190505050611701565b6040518082815260200191505060405180910390f35b348015610a8257600080fd5b50610ad7600480360381019080803573ffffffffffffffffffffffffffffffffffffffff169060200190929190803573ffffffffffffffffffffffffffffffffffffffff169060200190929190505050611731565b604051808215151515815260200191505060405180910390f35b600060405180807f737570706f727473496e74657266616365286279746573342900000000000000815250601901905060405180910390207bffffffffffffffffffffffffffffffffffffffffffffffffffffffff1916827bffffffffffffffffffffffffffffffffffffffffffffffffffffffff19161480610dc4575060405180807f746f6b656e734f664f776e6572286164647265737329000000000000000000008152506016019050604051809103902060405180807f7472616e7366657246726f6d28616464726573732c616464726573732c75696e81526020017f74323536290000000000000000000000000000000000000000000000000000008152506025019050604051809103902060405180807f7472616e7366657228616464726573732c75696e7432353629000000000000008152506019019050604051809103902060405180807f617070726f766528616464726573732c75696e743235362900000000000000008152506018019050604051809103902060405180807f6f776e65724f662875696e7432353629000000000000000000000000000000008152506010019050604051809103902060405180807f62616c616e63654f6628616464726573732900000000000000000000000000008152506012019050604051809103902060405180807f746f74616c537570706c79282900000000000000000000000000000000000000815250600d019050604051809103902060405180807f73796d626f6c28290000000000000000000000000000000000000000000000008152506008019050604051809103902060405180807f6e616d65282900000000000000000000000000000000000000000000000000008152506006019050604051809103902018181818181818187bffffffffffffffffffffffffffffffffffffffffffffffffffffffff1916827bffffffffffffffffffffffffffffffffffffffffffffffffffffffff1916145b9050919050565b6040805190810160405280600a81526020017f4d7949444f546f6b656e0000000000000000000000000000000000000000000081525081565b6000610e0f826117c5565b1515610e1a57600080fd5b6002600083815260200190815260200160002060009054906101000a900473ffffffffffffffffffffffffffffffffffffffff169050919050565b610e5f3382611837565b1515610e6a57600080fd5b610e7482826118a3565b5050565b6000610e83336119ba565b905090565b600080905090565b60056020528060005260406000206000915054906101000a900473ffffffffffffffffffffffffffffffffffffffff1681565b600073ffffffffffffffffffffffffffffffffffffffff168273ffffffffffffffffffffffffffffffffffffffff1614151515610eff57600080fd5b3073ffffffffffffffffffffffffffffffffffffffff168273ffffffffffffffffffffffffffffffffffffffff1614151515610f3a57600080fd5b610f443382611bf0565b1515610f4f57600080fd5b610f598382611837565b1515610f6457600080fd5b610f6f838383611c5c565b505050565b610f9083838360206040519081016040528060008152506116d9565b505050565b6060806060610fa261204f565b600960008673ffffffffffffffffffffffffffffffffffffffff1673ffffffffffffffffffffffffffffffffffffffff16815260200190815260200160002060606040519081016040529081600082018054600181600116156101000203166002900480601f0160208091040260200160405190810160405280929190818152602001828054600181600116156101000203166002900480156110865780601f1061105b57610100808354040283529160200191611086565b820191906000526020600020905b81548152906001019060200180831161106957829003601f168201915b50505050508152602001600182018054600181600116156101000203166002900480601f0160208091040260200160405190810160405280929190818152602001828054600181600116156101000203166002900480156111285780601f106110fd57610100808354040283529160200191611128565b820191906000526020600020905b81548152906001019060200180831161110b57829003601f168201915b50505050508152602001600282018054600181600116156101000203166002900480601f0160208091040260200160405190810160405280929190818152602001828054600181600116156101000203166002900480156111ca5780601f1061119f576101008083540402835291602001916111ca565b820191906000526020600020905b8154815290600101906020018083116111ad57829003601f168201915b5050505050815250509050806000015193508060200151925080604001519150509193909250565b60006005600083815260200190815260200160002060009054906101000a900473ffffffffffffffffffffffffffffffffffffffff169050600073ffffffffffffffffffffffffffffffffffffffff168173ffffffffffffffffffffffffffffffffffffffff161415151561126657600080fd5b919050565b6000600660008373ffffffffffffffffffffffffffffffffffffffff1673ffffffffffffffffffffffffffffffffffffffff168152602001908152602001600020549050919050565b60606000606060008060006112c88761126b565b9450600085141561130b5760006040519080825280602002602001820160405280156113035781602001602082028038833980820191505090505b5095506113f7565b8460405190808252806020026020018201604052801561133a5781602001602082028038833980820191505090505b509350611345610e88565b925060009150600190505b82811115156113f3578673ffffffffffffffffffffffffffffffffffffffff166005600083815260200190815260200160002060009054906101000a900473ffffffffffffffffffffffffffffffffffffffff1673ffffffffffffffffffffffffffffffffffffffff1614156113e6578084838151811015156113cf57fe5b906020019060200201818152505081806001019250505b8080600101915050611350565b8395505b5050505050919050565b6040805190810160405280600581526020017f49444f544b00000000000000000000000000000000000000000000000000000081525081565b3373ffffffffffffffffffffffffffffffffffffffff168273ffffffffffffffffffffffffffffffffffffffff161415151561147557600080fd5b80600460003373ffffffffffffffffffffffffffffffffffffffff1673ffffffffffffffffffffffffffffffffffffffff16815260200190815260200160002060008473ffffffffffffffffffffffffffffffffffffffff1673ffffffffffffffffffffffffffffffffffffffff16815260200190815260200160002060006101000a81548160ff0219169083151502179055508173ffffffffffffffffffffffffffffffffffffffff163373ffffffffffffffffffffffffffffffffffffffff167f17307eab39ab6107e8899845ad3d59bd9653f200f220920489ca2b5937696c3183604051808215151515815260200191505060405180910390a35050565b60076020528060005260406000206000915054906101000a900473ffffffffffffffffffffffffffffffffffffffff1681565b600073ffffffffffffffffffffffffffffffffffffffff168273ffffffffffffffffffffffffffffffffffffffff16141515156115e557600080fd5b3073ffffffffffffffffffffffffffffffffffffffff168273ffffffffffffffffffffffffffffffffffffffff161415151561162057600080fd5b61162a3382611837565b151561163557600080fd5b611640338383611c5c565b5050565b6060600860003373ffffffffffffffffffffffffffffffffffffffff1673ffffffffffffffffffffffffffffffffffffffff1681526020019081526020016000208054806020026020016040519081016040528092919081815260200182805480156116cf57602002820191906000526020600020905b8154815260200190600101908083116116bb575b5050505050905090565b6116e4848484610ec3565b6116f084848484611e1a565b15156116fb57600080fd5b50505050565b60086020528160005260406000208181548110151561171c57fe5b90600052602060002001600091509150505481565b6000600460008473ffffffffffffffffffffffffffffffffffffffff1673ffffffffffffffffffffffffffffffffffffffff16815260200190815260200160002060008373ffffffffffffffffffffffffffffffffffffffff1673ffffffffffffffffffffffffffffffffffffffff16815260200190815260200160002060009054906101000a900460ff16905092915050565b6000806001600084815260200190815260200160002060009054906101000a900473ffffffffffffffffffffffffffffffffffffffff169050600073ffffffffffffffffffffffffffffffffffffffff168173ffffffffffffffffffffffffffffffffffffffff161415915050919050565b60008273ffffffffffffffffffffffffffffffffffffffff166005600084815260200190815260200160002060009054906101000a900473ffffffffffffffffffffffffffffffffffffffff1673ffffffffffffffffffffffffffffffffffffffff1614905092915050565b816007600083815260200190815260200160002060006101000a81548173ffffffffffffffffffffffffffffffffffffffff021916908373ffffffffffffffffffffffffffffffffffffffff160217905550806007600083815260200190815260200160002060009054906101000a900473ffffffffffffffffffffffffffffffffffffffff1673ffffffffffffffffffffffffffffffffffffffff166005600084815260200190815260200160002060009054906101000a900473ffffffffffffffffffffffffffffffffffffffff1673ffffffffffffffffffffffffffffffffffffffff167f8c5be1e5ebec7d5bd14f71427d1e84f3dd0314c0f7b2291e5b200ac8c7c3b92560405160405180910390a45050565b60006119c461204f565b6060604051908101604052806101006040519081016040528060df815260200161211760df913981526020016040805190810160405280600a81526020017f416e6e6f746174696f6e00000000000000000000000000000000000000000000815250815260200160a060405190810160405280607381526020017f333966623036363433646338663831643865303963666433396662303636343381526020017f646338663831643865303963666433396662303636343364633866383164386581526020017f303963666433396662303636343364633866383164386530396366643339666281526020017f3036363433646338663831643865303963666400000000000000000000000000815250815250905080600960008573ffffffffffffffffffffffffffffffffffffffff1673ffffffffffffffffffffffffffffffffffffffff1681526020019081526020016000206000820151816000019080519060200190611b35929190612071565b506020820151816001019080519060200190611b52929190612071565b506040820151816002019080519060200190611b6f929190612071565b509050507f0f6798a560793a54c3bcfe86a93cde1e73087d944c0ea20544137d41213968858383604051808373ffffffffffffffffffffffffffffffffffffffff1673ffffffffffffffffffffffffffffffffffffffff1681526020018281526020019250505060405180910390a1611bea60008484611c5c565b50919050565b60008273ffffffffffffffffffffffffffffffffffffffff166007600084815260200190815260200160002060009054906101000a900473ffffffffffffffffffffffffffffffffffffffff1673ffffffffffffffffffffffffffffffffffffffff1614905092915050565b600660008373ffffffffffffffffffffffffffffffffffffffff1673ffffffffffffffffffffffffffffffffffffffff16815260200190815260200160002060008154809291906001019190505550816005600083815260200190815260200160002060006101000a81548173ffffffffffffffffffffffffffffffffffffffff021916908373ffffffffffffffffffffffffffffffffffffffff160217905550600073ffffffffffffffffffffffffffffffffffffffff168373ffffffffffffffffffffffffffffffffffffffff16141515611dba57600660008473ffffffffffffffffffffffffffffffffffffffff1673ffffffffffffffffffffffffffffffffffffffff16815260200190815260200160002060008154809291906001900391905055506007600082815260200190815260200160002060006101000a81549073ffffffffffffffffffffffffffffffffffffffff02191690555b808273ffffffffffffffffffffffffffffffffffffffff168473ffffffffffffffffffffffffffffffffffffffff167fddf252ad1be2c89b69c2b068fc378daa952ba7f163c4a11628f55a4df523b3ef60405160405180910390a4505050565b600080611e3c8573ffffffffffffffffffffffffffffffffffffffff1661203c565b1515611e4b5760019150612033565b8473ffffffffffffffffffffffffffffffffffffffff1663150b7a02338887876040518563ffffffff167c0100000000000000000000000000000000000000000000000000000000028152600401808573ffffffffffffffffffffffffffffffffffffffff1673ffffffffffffffffffffffffffffffffffffffff1681526020018473ffffffffffffffffffffffffffffffffffffffff1673ffffffffffffffffffffffffffffffffffffffff16815260200183815260200180602001828103825283818151815260200191508051906020019080838360005b83811015611f40578082015181840152602081019050611f25565b50505050905090810190601f168015611f6d5780820380516001836020036101000a031916815260200191505b5095505050505050602060405180830381600087803b158015611f8f57600080fd5b505af1158015611fa3573d6000803e3d6000fd5b505050506040513d6020811015611fb957600080fd5b8101908080519060200190929190505050905063150b7a027c0100000000000000000000000000000000000000000000000000000000027bffffffffffffffffffffffffffffffffffffffffffffffffffffffff1916817bffffffffffffffffffffffffffffffffffffffffffffffffffffffff19161491505b50949350505050565b600080823b905060008111915050919050565b6060604051908101604052806060815260200160608152602001606081525090565b828054600181600116156101000203166002900490600052602060002090601f016020900481019282601f106120b257805160ff19168380011785556120e0565b828001600101855582156120e0579182015b828111156120df5782518255916020019190600101906120c4565b5b5090506120ed91906120f1565b5090565b61211391905b8082111561210f5760008160009055506001016120f7565b5090565b90560068747470733a2f2f6c6f72656d666c69636b722e636f6d2f3634302f3336302f68747470733a2f2f6c6f72656d666c69636b722e636f6d2f3634302f3336302f68747470733a2f2f6c6f72656d666c69636b722e636f6d2f3634302f3336302f68747470733a2f2f6c6f72656d666c69636b722e636f6d2f3634302f3336302f68747470733a2f2f6c6f72656d666c69636b722e636f6d2f3634302f3336302f68747470733a2f2f6c6f72656d666c69636b722e636f6d2f3634302f3336302f68747470733a2f2f6c6f72656d666c69636b722e636f6d2f3634302f333630a165627a7a72305820e25eecd46c4cd6e4cf23092a7995341cb7e2eb08c8c925aa7cc78ed97ee5e8a30029",
  "source": "pragma solidity ^0.4.24;\n\nimport \"openzeppelin-solidity/contracts/token/ERC721/ERC721.sol\";\n\ncontract DataUnion is ERC721 {\n  /*** CONSTANTS ***/\n\n  string public constant name = \"MyIDOToken\";\n  string public constant symbol = \"IDOTK\";\n\n  bytes4 constant InterfaceID_ERC165 =\n    bytes4(keccak256('supportsInterface(bytes4)'));\n\n  bytes4 constant InterfaceID_ERC721 =\n    bytes4(keccak256('name()')) ^\n    bytes4(keccak256('symbol()')) ^\n    bytes4(keccak256('totalSupply()')) ^\n    bytes4(keccak256('balanceOf(address)')) ^\n    bytes4(keccak256('ownerOf(uint256)')) ^\n    bytes4(keccak256('approve(address,uint256)')) ^\n    bytes4(keccak256('transfer(address,uint256)')) ^\n    bytes4(keccak256('transferFrom(address,address,uint256)')) ^\n    bytes4(keccak256('tokensOfOwner(address)'));\n\n\n  /*** DATA TYPES ***/\n\n  /*struct Token {\n    address mintedBy;\n    uint64 mintedAt;\n  }*/\n\n  struct Token {\n    string imageUrl; //URL of image.\n    string dataType; //Annotation or Verification.\n    string data; //Variable containing AnnotationHash or Verification.\n  }\n\n\n  /*** STORAGE ***/\n\n  // Token[] tokens;\n\n  mapping (uint256 => address) public tokenIndexToOwner;\n  mapping (address => uint256) ownershipTokenCount;\n  mapping (uint256 => address) public tokenIndexToApproved;\n  mapping (address => uint[]) public test;\n\n  mapping(address => Token) tokens;\n  //mapping(address => mapping(string => Token))\n  //Token[Address][ImageHash];\n\n\n  /*** EVENTS ***/\n\n  event Mint(address owner, uint256 tokenId);\n\n\n  /*** INTERNAL FUNCTIONS ***/\n\n  function _owns(address _claimant, uint256 _tokenId) internal view returns (bool) {\n    return tokenIndexToOwner[_tokenId] == _claimant;\n  }\n\n  function _approvedFor(address _claimant, uint256 _tokenId) internal view returns (bool) {\n    return tokenIndexToApproved[_tokenId] == _claimant;\n  }\n\n  function _approve(address _to, uint256 _tokenId) internal {\n    tokenIndexToApproved[_tokenId] = _to;\n\n    emit Approval(tokenIndexToOwner[_tokenId], tokenIndexToApproved[_tokenId], _tokenId);\n  }\n\n  function _transfer(address _from, address _to, uint256 _tokenId) internal {\n    ownershipTokenCount[_to]++;\n    tokenIndexToOwner[_tokenId] = _to;\n\n    if (_from != address(0)) {\n      ownershipTokenCount[_from]--;\n      delete tokenIndexToApproved[_tokenId];\n    }\n\n    emit Transfer(_from, _to, _tokenId);\n  }\n\n  function _mint(address _owner) internal returns (uint256 tokenId) {\n    Token memory token = Token({\n      imageUrl: \"https://loremflickr.com/640/360/https://loremflickr.com/640/360/https://loremflickr.com/640/360/https://loremflickr.com/640/360/https://loremflickr.com/640/360/https://loremflickr.com/640/360/https://loremflickr.com/640/360\",\n      dataType: \"Annotation\",\n      data: \"39fb06643dc8f81d8e09cfd39fb06643dc8f81d8e09cfd39fb06643dc8f81d8e09cfd39fb06643dc8f81d8e09cfd39fb06643dc8f81d8e09cfd\"\n    });\n\n    tokens[_owner] = token;\n\n    emit Mint(_owner, tokenId);\n\n    _transfer(0, _owner, tokenId);\n  }\n\n\n  /*** ERC721 IMPLEMENTATION ***/\n\n  function supportsInterface(bytes4 _interfaceID) external view returns (bool) {\n    return ((_interfaceID == InterfaceID_ERC165) || (_interfaceID == InterfaceID_ERC721));\n  }\n\n  function totalSupply() public view returns (uint256) {\n    return 0;\n  }\n\n  function balanceOf(address _owner) public view returns (uint256) {\n    return ownershipTokenCount[_owner];\n  }\n\n  function ownerOf(uint256 _tokenId) public view returns (address owner) {\n    owner = tokenIndexToOwner[_tokenId];\n\n    require(owner != address(0));\n  }\n\n  function approve(address _to, uint256 _tokenId) public {\n    require(_owns(msg.sender, _tokenId));\n\n    _approve(_to, _tokenId);\n  }\n\n  function transfer(address _to, uint256 _tokenId) public {\n    require(_to != address(0));\n    require(_to != address(this));\n    require(_owns(msg.sender, _tokenId));\n\n    _transfer(msg.sender, _to, _tokenId);\n  }\n\n  function transferFrom(address _from, address _to, uint256 _tokenId) public {\n    require(_to != address(0));\n    require(_to != address(this));\n    require(_approvedFor(msg.sender, _tokenId));\n    require(_owns(_from, _tokenId));\n\n    _transfer(_from, _to, _tokenId);\n  }\n\n  function tokensOfOwner(address _owner) external view returns (uint256[]) {\n    uint256 balance = balanceOf(_owner);\n\n    if (balance == 0) {\n      return new uint256[](0);\n    } else {\n      uint256[] memory result = new uint256[](balance);\n      uint256 maxTokenId = totalSupply();\n      uint256 idx = 0;\n\n      uint256 tokenId;\n      for (tokenId = 1; tokenId <= maxTokenId; tokenId++) {\n        if (tokenIndexToOwner[tokenId] == _owner) {\n          result[idx] = tokenId;\n          idx++;\n        }\n      }\n    }\n\n    return result;\n  }\n\n\n  /*** OTHER EXTERNAL FUNCTIONS ***/\n\n  function mint() external returns (uint256) {\n    return _mint(msg.sender);\n  }\n\n  function getToken(address boeb) public view returns (string imageUrl, string dataType, string data) {\n    Token memory token = tokens[boeb];\n\n    imageUrl = token.imageUrl;\n    dataType = token.dataType;\n    data = token.data;\n  }\n\n  //alle token id's\n  function getTokenFromOwner() public view returns(uint[]){\n    return test[msg.sender];\n  }\n  \n\n}",
  "sourcePath": "/home/jeffrey/token/ido-smartcontract/contracts/DataUnion.sol",
  "compiler": {
    "name": "solc",
    "version": "0.4.24+commit.e67f0147.Emscripten.clang"
  },
  "schemaVersion": "3.2.5",
  "updatedAt": "2020-10-14T20:12:10.634Z",
  "networkType": "ethereum",
  "devdoc": {
    "methods": {
      "getApproved(uint256)": {
        "details": "Gets the approved address for a token ID, or zero if no address set Reverts if the token ID does not exist.",
        "params": {
          "tokenId": "uint256 ID of the token to query the approval of"
        },
        "return": "address currently approved for the given token ID"
      },
      "isApprovedForAll(address,address)": {
        "details": "Tells whether an operator is approved by a given owner",
        "params": {
          "operator": "operator address which you want to query the approval of",
          "owner": "owner address which you want to query the approval of"
        },
        "return": "bool whether the given operator is approved by the given owner"
      },
      "safeTransferFrom(address,address,uint256)": {
        "details": "Safely transfers the ownership of a given token ID to another address If the target address is a contract, it must implement `onERC721Received`, which is called upon a safe transfer, and return the magic value `bytes4(keccak256(\"onERC721Received(address,address,uint256,bytes)\"))`; otherwise, the transfer is reverted.   * Requires the msg sender to be the owner, approved, or operator",
        "params": {
          "from": "current owner of the token",
          "to": "address to receive the ownership of the given token ID",
          "tokenId": "uint256 ID of the token to be transferred"
        }
      },
      "safeTransferFrom(address,address,uint256,bytes)": {
        "details": "Safely transfers the ownership of a given token ID to another address If the target address is a contract, it must implement `onERC721Received`, which is called upon a safe transfer, and return the magic value `bytes4(keccak256(\"onERC721Received(address,address,uint256,bytes)\"))`; otherwise, the transfer is reverted. Requires the msg sender to be the owner, approved, or operator",
        "params": {
          "_data": "bytes data to send along with a safe transfer check",
          "from": "current owner of the token",
          "to": "address to receive the ownership of the given token ID",
          "tokenId": "uint256 ID of the token to be transferred"
        }
      },
      "setApprovalForAll(address,bool)": {
        "details": "Sets or unsets the approval of a given operator An operator is allowed to transfer all tokens of the sender on their behalf",
        "params": {
          "approved": "representing the status of the approval to be set",
          "to": "operator address to set the approval"
        }
      }
    }
  },
  "userdoc": {
    "methods": {
      "mint()": {
        "notice": "* OTHER EXTERNAL FUNCTIONS **"
      },
      "supportsInterface(bytes4)": {
        "notice": "* ERC721 IMPLEMENTATION **"
      }
    }
  }
}