{
  "contractName": "DataUnion",
  "abi": [
    {
      "constant": true,
      "inputs": [],
      "name": "name",
      "outputs": [
        {
          "name": "",
          "type": "string"
        }
      ],
      "payable": false,
      "stateMutability": "view",
      "type": "function"
    },
    {
      "constant": true,
      "inputs": [
        {
          "name": "tokenId",
          "type": "uint256"
        }
      ],
      "name": "getApproved",
      "outputs": [
        {
          "name": "",
          "type": "address"
        }
      ],
      "payable": false,
      "stateMutability": "view",
      "type": "function"
    },
    {
      "constant": true,
      "inputs": [
        {
          "name": "",
          "type": "uint256"
        }
      ],
      "name": "tokenIndexToOwner",
      "outputs": [
        {
          "name": "",
          "type": "address"
        }
      ],
      "payable": false,
      "stateMutability": "view",
      "type": "function"
    },
    {
      "constant": false,
      "inputs": [
        {
          "name": "from",
          "type": "address"
        },
        {
          "name": "to",
          "type": "address"
        },
        {
          "name": "tokenId",
          "type": "uint256"
        }
      ],
      "name": "safeTransferFrom",
      "outputs": [],
      "payable": false,
      "stateMutability": "nonpayable",
      "type": "function"
    },
    {
      "constant": true,
      "inputs": [],
      "name": "symbol",
      "outputs": [
        {
          "name": "",
          "type": "string"
        }
      ],
      "payable": false,
      "stateMutability": "view",
      "type": "function"
    },
    {
      "constant": false,
      "inputs": [
        {
          "name": "to",
          "type": "address"
        },
        {
          "name": "approved",
          "type": "bool"
        }
      ],
      "name": "setApprovalForAll",
      "outputs": [],
      "payable": false,
      "stateMutability": "nonpayable",
      "type": "function"
    },
    {
      "constant": true,
      "inputs": [
        {
          "name": "",
          "type": "uint256"
        }
      ],
      "name": "tokenIndexToApproved",
      "outputs": [
        {
          "name": "",
          "type": "address"
        }
      ],
      "payable": false,
      "stateMutability": "view",
      "type": "function"
    },
    {
      "constant": false,
      "inputs": [
        {
          "name": "from",
          "type": "address"
        },
        {
          "name": "to",
          "type": "address"
        },
        {
          "name": "tokenId",
          "type": "uint256"
        },
        {
          "name": "_data",
          "type": "bytes"
        }
      ],
      "name": "safeTransferFrom",
      "outputs": [],
      "payable": false,
      "stateMutability": "nonpayable",
      "type": "function"
    },
    {
      "constant": true,
      "inputs": [
        {
          "name": "",
          "type": "address"
        },
        {
          "name": "",
          "type": "uint256"
        }
      ],
      "name": "test",
      "outputs": [
        {
          "name": "",
          "type": "uint256"
        }
      ],
      "payable": false,
      "stateMutability": "view",
      "type": "function"
    },
    {
      "constant": true,
      "inputs": [
        {
          "name": "owner",
          "type": "address"
        },
        {
          "name": "operator",
          "type": "address"
        }
      ],
      "name": "isApprovedForAll",
      "outputs": [
        {
          "name": "",
          "type": "bool"
        }
      ],
      "payable": false,
      "stateMutability": "view",
      "type": "function"
    },
    {
      "anonymous": false,
      "inputs": [
        {
          "indexed": false,
          "name": "owner",
          "type": "address"
        },
        {
          "indexed": false,
          "name": "tokenId",
          "type": "uint256"
        }
      ],
      "name": "Mint",
      "type": "event"
    },
    {
      "anonymous": false,
      "inputs": [
        {
          "indexed": true,
          "name": "from",
          "type": "address"
        },
        {
          "indexed": true,
          "name": "to",
          "type": "address"
        },
        {
          "indexed": true,
          "name": "tokenId",
          "type": "uint256"
        }
      ],
      "name": "Transfer",
      "type": "event"
    },
    {
      "anonymous": false,
      "inputs": [
        {
          "indexed": true,
          "name": "owner",
          "type": "address"
        },
        {
          "indexed": true,
          "name": "approved",
          "type": "address"
        },
        {
          "indexed": true,
          "name": "tokenId",
          "type": "uint256"
        }
      ],
      "name": "Approval",
      "type": "event"
    },
    {
      "anonymous": false,
      "inputs": [
        {
          "indexed": true,
          "name": "owner",
          "type": "address"
        },
        {
          "indexed": true,
          "name": "operator",
          "type": "address"
        },
        {
          "indexed": false,
          "name": "approved",
          "type": "bool"
        }
      ],
      "name": "ApprovalForAll",
      "type": "event"
    },
    {
      "constant": true,
      "inputs": [
        {
          "name": "_interfaceID",
          "type": "bytes4"
        }
      ],
      "name": "supportsInterface",
      "outputs": [
        {
          "name": "",
          "type": "bool"
        }
      ],
      "payable": false,
      "stateMutability": "view",
      "type": "function"
    },
    {
      "constant": true,
      "inputs": [],
      "name": "totalSupply",
      "outputs": [
        {
          "name": "",
          "type": "uint256"
        }
      ],
      "payable": false,
      "stateMutability": "view",
      "type": "function"
    },
    {
      "constant": true,
      "inputs": [
        {
          "name": "_owner",
          "type": "address"
        }
      ],
      "name": "balanceOf",
      "outputs": [
        {
          "name": "",
          "type": "uint256"
        }
      ],
      "payable": false,
      "stateMutability": "view",
      "type": "function"
    },
    {
      "constant": true,
      "inputs": [
        {
          "name": "_tokenId",
          "type": "uint256"
        }
      ],
      "name": "ownerOf",
      "outputs": [
        {
          "name": "owner",
          "type": "address"
        }
      ],
      "payable": false,
      "stateMutability": "view",
      "type": "function"
    },
    {
      "constant": false,
      "inputs": [
        {
          "name": "_to",
          "type": "address"
        },
        {
          "name": "_tokenId",
          "type": "uint256"
        }
      ],
      "name": "approve",
      "outputs": [],
      "payable": false,
      "stateMutability": "nonpayable",
      "type": "function"
    },
    {
      "constant": false,
      "inputs": [
        {
          "name": "_to",
          "type": "address"
        },
        {
          "name": "_tokenId",
          "type": "uint256"
        }
      ],
      "name": "transfer",
      "outputs": [],
      "payable": false,
      "stateMutability": "nonpayable",
      "type": "function"
    },
    {
      "constant": false,
      "inputs": [
        {
          "name": "_from",
          "type": "address"
        },
        {
          "name": "_to",
          "type": "address"
        },
        {
          "name": "_tokenId",
          "type": "uint256"
        }
      ],
      "name": "transferFrom",
      "outputs": [],
      "payable": false,
      "stateMutability": "nonpayable",
      "type": "function"
    },
    {
      "constant": true,
      "inputs": [
        {
          "name": "_owner",
          "type": "address"
        }
      ],
      "name": "tokensOfOwner",
      "outputs": [
        {
          "name": "",
          "type": "uint256[]"
        }
      ],
      "payable": false,
      "stateMutability": "view",
      "type": "function"
    },
    {
      "constant": false,
      "inputs": [],
      "name": "mint",
      "outputs": [
        {
          "name": "",
          "type": "uint256"
        }
      ],
      "payable": false,
      "stateMutability": "nonpayable",
      "type": "function"
    },
    {
      "constant": true,
      "inputs": [
        {
          "name": "boeb",
          "type": "address"
        }
      ],
      "name": "getToken",
      "outputs": [
        {
          "name": "mintedBy",
          "type": "address"
        }
      ],
      "payable": false,
      "stateMutability": "view",
      "type": "function"
    },
    {
      "constant": true,
      "inputs": [],
      "name": "getTokenFromOwner",
      "outputs": [
        {
          "name": "",
          "type": "uint256[]"
        }
      ],
      "payable": false,
      "stateMutability": "view",
      "type": "function"
    }
  ],
  "bytecode": "0x60806040526100367f01ffc9a70000000000000000000000000000000000000000000000000000000064010000000061006d810204565b6100687f80ac58cd0000000000000000000000000000000000000000000000000000000064010000000061006d810204565b6100d9565b7fffffffff00000000000000000000000000000000000000000000000000000000808216141561009c57600080fd5b7fffffffff00000000000000000000000000000000000000000000000000000000166000908152602081905260409020805460ff19166001179055565b61104c806100e86000396000f30060806040526004361061011c5763ffffffff7c010000000000000000000000000000000000000000000000000000000060003504166301ffc9a7811461012157806306fdde0314610157578063081812fc146101e1578063095ea7b3146102155780631249c58b1461023b57806318160ddd146102625780631d36e06c1461027757806323b872dd1461028f57806342842e0e146102b957806359770438146102e35780636352211e1461030457806370a082311461031c5780638462151c1461033d57806395d89b41146103ae578063a22cb465146103c3578063a8bd9c32146103e9578063a9059cbb14610401578063b1cbf2cc14610425578063b88d4fde1461043a578063ba14d606146104a9578063e985e9c5146104cd575b600080fd5b34801561012d57600080fd5b50610143600160e060020a0319600435166104f4565b604080519115158252519081900360200190f35b34801561016357600080fd5b5061016c61072e565b6040805160208082528351818301528351919283929083019185019080838360005b838110156101a657818101518382015260200161018e565b50505050905090810190601f1680156101d35780820380516001836020036101000a031916815260200191505b509250505060405180910390f35b3480156101ed57600080fd5b506101f9600435610765565b60408051600160a060020a039092168252519081900360200190f35b34801561022157600080fd5b50610239600160a060020a0360043516602435610797565b005b34801561024757600080fd5b506102506107ba565b60408051918252519081900360200190f35b34801561026e57600080fd5b506102506107ca565b34801561028357600080fd5b506101f96004356107cf565b34801561029b57600080fd5b50610239600160a060020a03600435811690602435166044356107ea565b3480156102c557600080fd5b50610239600160a060020a036004358116906024351660443561084f565b3480156102ef57600080fd5b506101f9600160a060020a036004351661086b565b34801561031057600080fd5b506101f96004356108cc565b34801561032857600080fd5b50610250600160a060020a03600435166108f0565b34801561034957600080fd5b5061035e600160a060020a036004351661090b565b60408051602080825283518183015283519192839290830191858101910280838360005b8381101561039a578181015183820152602001610382565b505050509050019250505060405180910390f35b3480156103ba57600080fd5b5061016c6109dd565b3480156103cf57600080fd5b50610239600160a060020a03600435166024351515610a14565b3480156103f557600080fd5b506101f9600435610a98565b34801561040d57600080fd5b50610239600160a060020a0360043516602435610ab3565b34801561043157600080fd5b5061035e610afe565b34801561044657600080fd5b50604080516020601f60643560048181013592830184900484028501840190955281845261023994600160a060020a038135811695602480359092169560443595369560849401918190840183828082843750949750610b5f9650505050505050565b3480156104b557600080fd5b50610250600160a060020a0360043516602435610b87565b3480156104d957600080fd5b50610143600160a060020a0360043581169060243516610bb7565b604080517f737570706f727473496e7465726661636528627974657334290000000000000081529051908190036019019020600090600160e060020a0319838116911614806107265750604080517f746f6b656e734f664f776e657228616464726573732900000000000000000000815281519081900360160181207f7472616e7366657246726f6d28616464726573732c616464726573732c75696e82527f7432353629000000000000000000000000000000000000000000000000000000602083015282519182900360250182207f7472616e7366657228616464726573732c75696e743235362900000000000000835283519283900360190183207f617070726f766528616464726573732c75696e74323536290000000000000000845284519384900360180184207f6f776e65724f662875696e743235362900000000000000000000000000000000855285519485900360100185207f62616c616e63654f662861646472657373290000000000000000000000000000865286519586900360120186207f746f74616c537570706c792829000000000000000000000000000000000000008752875196879003600d0187207f73796d626f6c2829000000000000000000000000000000000000000000000000885288519788900360080188207f6e616d65282900000000000000000000000000000000000000000000000000008952985197889003600601909720600160e060020a03198b81169190991890971818181818181891909116145b90505b919050565b60408051808201909152600a81527f4d7949444f546f6b656e00000000000000000000000000000000000000000000602082015281565b600061077082610be5565b151561077b57600080fd5b50600090815260026020526040902054600160a060020a031690565b6107a13382610c08565b15156107ac57600080fd5b6107b68282610c28565b5050565b60006107c533610ca3565b905090565b600090565b600560205260009081526040902054600160a060020a031681565b600160a060020a03821615156107ff57600080fd5b600160a060020a03821630141561081557600080fd5b61081f3382610d93565b151561082a57600080fd5b6108348382610c08565b151561083f57600080fd5b61084a838383610db3565b505050565b61084a8383836020604051908101604052806000815250610b5f565b6000610875611009565b5050600160a060020a039081166000908152600960209081526040918290208251808401909352549283168083527401000000000000000000000000000000000000000090930467ffffffffffffffff1691015290565b600081815260056020526040902054600160a060020a031680151561072957600080fd5b600160a060020a031660009081526006602052604090205490565b606060006060600080600061091f876108f0565b945084151561093e5760408051600081526020810190915295506109d3565b84604051908082528060200260200182016040528015610968578160200160208202803883390190505b5093506109736107ca565b925060009150600190505b8281116109cf57600081815260056020526040902054600160a060020a03888116911614156109c7578084838151811015156109b657fe5b602090810290910101526001909101905b60010161097e565b8395505b5050505050919050565b60408051808201909152600581527f49444f544b000000000000000000000000000000000000000000000000000000602082015281565b600160a060020a038216331415610a2a57600080fd5b336000818152600460209081526040808320600160a060020a03871680855290835292819020805460ff1916861515908117909155815190815290519293927f17307eab39ab6107e8899845ad3d59bd9653f200f220920489ca2b5937696c31929181900390910190a35050565b600760205260009081526040902054600160a060020a031681565b600160a060020a0382161515610ac857600080fd5b600160a060020a038216301415610ade57600080fd5b610ae83382610c08565b1515610af357600080fd5b6107b6338383610db3565b33600090815260086020908152604091829020805483518184028101840190945280845260609392830182828015610b5557602002820191906000526020600020905b815481526020019060010190808311610b41575b5050505050905090565b610b6a8484846107ea565b610b7684848484610e94565b1515610b8157600080fd5b50505050565b600860205281600052604060002081815481101515610ba257fe5b90600052602060002001600091509150505481565b600160a060020a03918216600090815260046020908152604080832093909416825291909152205460ff1690565b600081815260016020526040902054600160a060020a0316801515905b50919050565b600090815260056020526040902054600160a060020a0391821691161490565b6000818152600760209081526040808320805473ffffffffffffffffffffffffffffffffffffffff1916600160a060020a038781169190911791829055600590935281842054915185949184169392909216917f8c5be1e5ebec7d5bd14f71427d1e84f3dd0314c0f7b2291e5b200ac8c7c3b9259190a45050565b6000610cad611009565b50604080518082018252600160a060020a038085168083526104b0602080850191825260008381526009825286902085518154935167ffffffffffffffff1674010000000000000000000000000000000000000000027fffffffff0000000000000000ffffffffffffffffffffffffffffffffffffffff9190961673ffffffffffffffffffffffffffffffffffffffff1990941693909317929092169390931790558351908152908101849052825191927f0f6798a560793a54c3bcfe86a93cde1e73087d944c0ea20544137d412139688592918290030190a1610c0260008484610db3565b600090815260076020526040902054600160a060020a0391821691161490565b600160a060020a0380831660008181526006602090815260408083208054600101905585835260059091529020805473ffffffffffffffffffffffffffffffffffffffff19169091179055831615610e4e57600160a060020a0383166000908152600660209081526040808320805460001901905583835260079091529020805473ffffffffffffffffffffffffffffffffffffffff191690555b8082600160a060020a031684600160a060020a03167fddf252ad1be2c89b69c2b068fc378daa952ba7f163c4a11628f55a4df523b3ef60405160405180910390a4505050565b600080610ea985600160a060020a0316611001565b1515610eb85760019150610ff8565b6040517f150b7a020000000000000000000000000000000000000000000000000000000081523360048201818152600160a060020a03898116602485015260448401889052608060648501908152875160848601528751918a169463150b7a0294938c938b938b93909160a490910190602085019080838360005b83811015610f4b578181015183820152602001610f33565b50505050905090810190601f168015610f785780820380516001836020036101000a031916815260200191505b5095505050505050602060405180830381600087803b158015610f9a57600080fd5b505af1158015610fae573d6000803e3d6000fd5b505050506040513d6020811015610fc457600080fd5b5051600160e060020a031981167f150b7a020000000000000000000000000000000000000000000000000000000014925090505b50949350505050565b6000903b1190565b6040805180820190915260008082526020820152905600a165627a7a7230582010cd4374e6b67e52dcc668d65e908f90f87837cd88381ff578b658941af195fc0029",
  "source": "pragma solidity ^0.4.24;\n\nimport \"openzeppelin-solidity/contracts/token/ERC721/ERC721.sol\";\n\ncontract DataUnion is ERC721 {\n  /*** CONSTANTS ***/\n\n  string public constant name = \"MyIDOToken\";\n  string public constant symbol = \"IDOTK\";\n\n  bytes4 constant InterfaceID_ERC165 =\n    bytes4(keccak256('supportsInterface(bytes4)'));\n\n  bytes4 constant InterfaceID_ERC721 =\n    bytes4(keccak256('name()')) ^\n    bytes4(keccak256('symbol()')) ^\n    bytes4(keccak256('totalSupply()')) ^\n    bytes4(keccak256('balanceOf(address)')) ^\n    bytes4(keccak256('ownerOf(uint256)')) ^\n    bytes4(keccak256('approve(address,uint256)')) ^\n    bytes4(keccak256('transfer(address,uint256)')) ^\n    bytes4(keccak256('transferFrom(address,address,uint256)')) ^\n    bytes4(keccak256('tokensOfOwner(address)'));\n\n\n  /*** DATA TYPES ***/\n\n  struct Token {\n    address mintedBy;\n    uint64 mintedAt;\n  }\n\n\n  /*** STORAGE ***/\n\n  //Token[] tokens;\n\n  mapping (uint256 => address) public tokenIndexToOwner;\n  mapping (address => uint256) ownershipTokenCount;\n  mapping (uint256 => address) public tokenIndexToApproved;\n  mapping (address => uint[]) public test;\n\n  mapping(address => Token) tokens;\n\n\n  /*** EVENTS ***/\n\n  event Mint(address owner, uint256 tokenId);\n\n\n  /*** INTERNAL FUNCTIONS ***/\n\n  function _owns(address _claimant, uint256 _tokenId) internal view returns (bool) {\n    return tokenIndexToOwner[_tokenId] == _claimant;\n  }\n\n  function _approvedFor(address _claimant, uint256 _tokenId) internal view returns (bool) {\n    return tokenIndexToApproved[_tokenId] == _claimant;\n  }\n\n  function _approve(address _to, uint256 _tokenId) internal {\n    tokenIndexToApproved[_tokenId] = _to;\n\n    emit Approval(tokenIndexToOwner[_tokenId], tokenIndexToApproved[_tokenId], _tokenId);\n  }\n\n  function _transfer(address _from, address _to, uint256 _tokenId) internal {\n    ownershipTokenCount[_to]++;\n    tokenIndexToOwner[_tokenId] = _to;\n\n    if (_from != address(0)) {\n      ownershipTokenCount[_from]--;\n      delete tokenIndexToApproved[_tokenId];\n    }\n\n    emit Transfer(_from, _to, _tokenId);\n  }\n\n  function _mint(address _owner) internal returns (uint256 tokenId) {\n    Token memory token = Token({\n      mintedBy: _owner,\n      mintedAt: 1200\n    });\n\n    //\n    //tokenId = tokens[_owner].push() - 1;\n\n    tokens[_owner] = token;\n    //test[_owner].push(tokenId);\n\n    emit Mint(_owner, tokenId);\n\n    _transfer(0, _owner, tokenId);\n  }\n\n\n  /*** ERC721 IMPLEMENTATION ***/\n\n  function supportsInterface(bytes4 _interfaceID) external view returns (bool) {\n    return ((_interfaceID == InterfaceID_ERC165) || (_interfaceID == InterfaceID_ERC721));\n  }\n\n  function totalSupply() public view returns (uint256) {\n    return 0;\n  }\n\n  function balanceOf(address _owner) public view returns (uint256) {\n    return ownershipTokenCount[_owner];\n  }\n\n  function ownerOf(uint256 _tokenId) public view returns (address owner) {\n    owner = tokenIndexToOwner[_tokenId];\n\n    require(owner != address(0));\n  }\n\n  function approve(address _to, uint256 _tokenId) public {\n    require(_owns(msg.sender, _tokenId));\n\n    _approve(_to, _tokenId);\n  }\n\n  function transfer(address _to, uint256 _tokenId) public {\n    require(_to != address(0));\n    require(_to != address(this));\n    require(_owns(msg.sender, _tokenId));\n\n    _transfer(msg.sender, _to, _tokenId);\n  }\n\n  function transferFrom(address _from, address _to, uint256 _tokenId) public {\n    require(_to != address(0));\n    require(_to != address(this));\n    require(_approvedFor(msg.sender, _tokenId));\n    require(_owns(_from, _tokenId));\n\n    _transfer(_from, _to, _tokenId);\n  }\n\n  function tokensOfOwner(address _owner) external view returns (uint256[]) {\n    uint256 balance = balanceOf(_owner);\n\n    if (balance == 0) {\n      return new uint256[](0);\n    } else {\n      uint256[] memory result = new uint256[](balance);\n      uint256 maxTokenId = totalSupply();\n      uint256 idx = 0;\n\n      uint256 tokenId;\n      for (tokenId = 1; tokenId <= maxTokenId; tokenId++) {\n        if (tokenIndexToOwner[tokenId] == _owner) {\n          result[idx] = tokenId;\n          idx++;\n        }\n      }\n    }\n\n    return result;\n  }\n\n\n  /*** OTHER EXTERNAL FUNCTIONS ***/\n\n  function mint() external returns (uint256) {\n    return _mint(msg.sender);\n  }\n\n  function getToken(address boeb) public view returns (address mintedBy) {\n    Token memory token = tokens[boeb];\n\n    mintedBy = token.mintedBy;\n    //mintedAt = token.mintedAt;\n  }\n\n  //alle token id's\n  function getTokenFromOwner() public view returns(uint[]){\n    return test[msg.sender];\n  }\n  \n\n}",
  "sourcePath": "/home/jeffrey/token/ido-smartcontract/contracts/DataUnion.sol",
  "compiler": {
    "name": "solc",
    "version": "0.4.24+commit.e67f0147.Emscripten.clang"
  },
  "schemaVersion": "3.2.5",
  "updatedAt": "2020-10-09T16:52:28.013Z",
  "networkType": "ethereum",
  "devdoc": {
    "methods": {
      "getApproved(uint256)": {
        "details": "Gets the approved address for a token ID, or zero if no address set Reverts if the token ID does not exist.",
        "params": {
          "tokenId": "uint256 ID of the token to query the approval of"
        },
        "return": "address currently approved for the given token ID"
      },
      "isApprovedForAll(address,address)": {
        "details": "Tells whether an operator is approved by a given owner",
        "params": {
          "operator": "operator address which you want to query the approval of",
          "owner": "owner address which you want to query the approval of"
        },
        "return": "bool whether the given operator is approved by the given owner"
      },
      "safeTransferFrom(address,address,uint256)": {
        "details": "Safely transfers the ownership of a given token ID to another address If the target address is a contract, it must implement `onERC721Received`, which is called upon a safe transfer, and return the magic value `bytes4(keccak256(\"onERC721Received(address,address,uint256,bytes)\"))`; otherwise, the transfer is reverted.   * Requires the msg sender to be the owner, approved, or operator",
        "params": {
          "from": "current owner of the token",
          "to": "address to receive the ownership of the given token ID",
          "tokenId": "uint256 ID of the token to be transferred"
        }
      },
      "safeTransferFrom(address,address,uint256,bytes)": {
        "details": "Safely transfers the ownership of a given token ID to another address If the target address is a contract, it must implement `onERC721Received`, which is called upon a safe transfer, and return the magic value `bytes4(keccak256(\"onERC721Received(address,address,uint256,bytes)\"))`; otherwise, the transfer is reverted. Requires the msg sender to be the owner, approved, or operator",
        "params": {
          "_data": "bytes data to send along with a safe transfer check",
          "from": "current owner of the token",
          "to": "address to receive the ownership of the given token ID",
          "tokenId": "uint256 ID of the token to be transferred"
        }
      },
      "setApprovalForAll(address,bool)": {
        "details": "Sets or unsets the approval of a given operator An operator is allowed to transfer all tokens of the sender on their behalf",
        "params": {
          "approved": "representing the status of the approval to be set",
          "to": "operator address to set the approval"
        }
      }
    }
  },
  "userdoc": {
    "methods": {
      "mint()": {
        "notice": "* OTHER EXTERNAL FUNCTIONS **"
      },
      "supportsInterface(bytes4)": {
        "notice": "* ERC721 IMPLEMENTATION **"
      }
    }
  }
}