{
  "contractName": "IDO",
  "abi": [
    {
      "constant": true,
      "inputs": [],
      "name": "name",
      "outputs": [
        {
          "name": "",
          "type": "string"
        }
      ],
      "payable": false,
      "stateMutability": "view",
      "type": "function"
    },
    {
      "constant": true,
      "inputs": [],
      "name": "decimals",
      "outputs": [
        {
          "name": "",
          "type": "uint8"
        }
      ],
      "payable": false,
      "stateMutability": "view",
      "type": "function"
    },
    {
      "constant": false,
      "inputs": [
        {
          "name": "spender",
          "type": "address"
        },
        {
          "name": "addedValue",
          "type": "uint256"
        }
      ],
      "name": "increaseAllowance",
      "outputs": [
        {
          "name": "",
          "type": "bool"
        }
      ],
      "payable": false,
      "stateMutability": "nonpayable",
      "type": "function"
    },
    {
      "constant": true,
      "inputs": [],
      "name": "_totalSupply",
      "outputs": [
        {
          "name": "",
          "type": "uint256"
        }
      ],
      "payable": false,
      "stateMutability": "view",
      "type": "function"
    },
    {
      "constant": true,
      "inputs": [
        {
          "name": "",
          "type": "address"
        }
      ],
      "name": "datas",
      "outputs": [
        {
          "name": "",
          "type": "string"
        }
      ],
      "payable": false,
      "stateMutability": "view",
      "type": "function"
    },
    {
      "constant": true,
      "inputs": [],
      "name": "symbol",
      "outputs": [
        {
          "name": "",
          "type": "string"
        }
      ],
      "payable": false,
      "stateMutability": "view",
      "type": "function"
    },
    {
      "constant": true,
      "inputs": [
        {
          "name": "a",
          "type": "uint256"
        },
        {
          "name": "b",
          "type": "uint256"
        }
      ],
      "name": "safeSub",
      "outputs": [
        {
          "name": "c",
          "type": "uint256"
        }
      ],
      "payable": false,
      "stateMutability": "pure",
      "type": "function"
    },
    {
      "constant": false,
      "inputs": [
        {
          "name": "spender",
          "type": "address"
        },
        {
          "name": "subtractedValue",
          "type": "uint256"
        }
      ],
      "name": "decreaseAllowance",
      "outputs": [
        {
          "name": "",
          "type": "bool"
        }
      ],
      "payable": false,
      "stateMutability": "nonpayable",
      "type": "function"
    },
    {
      "constant": true,
      "inputs": [
        {
          "name": "a",
          "type": "uint256"
        },
        {
          "name": "b",
          "type": "uint256"
        }
      ],
      "name": "safeDiv",
      "outputs": [
        {
          "name": "c",
          "type": "uint256"
        }
      ],
      "payable": false,
      "stateMutability": "pure",
      "type": "function"
    },
    {
      "constant": true,
      "inputs": [
        {
          "name": "a",
          "type": "uint256"
        },
        {
          "name": "b",
          "type": "uint256"
        }
      ],
      "name": "safeMul",
      "outputs": [
        {
          "name": "c",
          "type": "uint256"
        }
      ],
      "payable": false,
      "stateMutability": "pure",
      "type": "function"
    },
    {
      "constant": true,
      "inputs": [],
      "name": "networkid",
      "outputs": [
        {
          "name": "",
          "type": "uint256"
        }
      ],
      "payable": false,
      "stateMutability": "view",
      "type": "function"
    },
    {
      "constant": true,
      "inputs": [
        {
          "name": "a",
          "type": "uint256"
        },
        {
          "name": "b",
          "type": "uint256"
        }
      ],
      "name": "safeAdd",
      "outputs": [
        {
          "name": "c",
          "type": "uint256"
        }
      ],
      "payable": false,
      "stateMutability": "pure",
      "type": "function"
    },
    {
      "inputs": [],
      "payable": false,
      "stateMutability": "nonpayable",
      "type": "constructor"
    },
    {
      "payable": true,
      "stateMutability": "payable",
      "type": "fallback"
    },
    {
      "anonymous": false,
      "inputs": [
        {
          "indexed": true,
          "name": "from",
          "type": "address"
        },
        {
          "indexed": true,
          "name": "to",
          "type": "address"
        },
        {
          "indexed": false,
          "name": "value",
          "type": "uint256"
        }
      ],
      "name": "Transfer",
      "type": "event"
    },
    {
      "anonymous": false,
      "inputs": [
        {
          "indexed": true,
          "name": "owner",
          "type": "address"
        },
        {
          "indexed": true,
          "name": "spender",
          "type": "address"
        },
        {
          "indexed": false,
          "name": "value",
          "type": "uint256"
        }
      ],
      "name": "Approval",
      "type": "event"
    },
    {
      "constant": true,
      "inputs": [
        {
          "name": "sender",
          "type": "address"
        }
      ],
      "name": "getData",
      "outputs": [
        {
          "name": "",
          "type": "string"
        }
      ],
      "payable": false,
      "stateMutability": "view",
      "type": "function"
    },
    {
      "constant": false,
      "inputs": [
        {
          "name": "adr",
          "type": "address"
        },
        {
          "name": "givenData",
          "type": "string"
        }
      ],
      "name": "setData",
      "outputs": [],
      "payable": false,
      "stateMutability": "nonpayable",
      "type": "function"
    },
    {
      "constant": true,
      "inputs": [],
      "name": "totalSupply",
      "outputs": [
        {
          "name": "",
          "type": "uint256"
        }
      ],
      "payable": false,
      "stateMutability": "view",
      "type": "function"
    },
    {
      "constant": true,
      "inputs": [
        {
          "name": "tokenOwner",
          "type": "address"
        }
      ],
      "name": "balanceOf",
      "outputs": [
        {
          "name": "balance",
          "type": "uint256"
        }
      ],
      "payable": false,
      "stateMutability": "view",
      "type": "function"
    },
    {
      "constant": false,
      "inputs": [
        {
          "name": "to",
          "type": "address"
        },
        {
          "name": "tokens",
          "type": "uint256"
        }
      ],
      "name": "transfer",
      "outputs": [
        {
          "name": "success",
          "type": "bool"
        }
      ],
      "payable": false,
      "stateMutability": "nonpayable",
      "type": "function"
    },
    {
      "constant": false,
      "inputs": [
        {
          "name": "spender",
          "type": "address"
        },
        {
          "name": "tokens",
          "type": "uint256"
        }
      ],
      "name": "approve",
      "outputs": [
        {
          "name": "success",
          "type": "bool"
        }
      ],
      "payable": false,
      "stateMutability": "nonpayable",
      "type": "function"
    },
    {
      "constant": false,
      "inputs": [
        {
          "name": "from",
          "type": "address"
        },
        {
          "name": "spender",
          "type": "address"
        },
        {
          "name": "tokens",
          "type": "uint256"
        }
      ],
      "name": "approve2",
      "outputs": [
        {
          "name": "success",
          "type": "bool"
        }
      ],
      "payable": false,
      "stateMutability": "nonpayable",
      "type": "function"
    },
    {
      "constant": false,
      "inputs": [
        {
          "name": "from",
          "type": "address"
        },
        {
          "name": "to",
          "type": "address"
        },
        {
          "name": "tokens",
          "type": "uint256"
        }
      ],
      "name": "transferFrom",
      "outputs": [
        {
          "name": "success",
          "type": "bool"
        }
      ],
      "payable": false,
      "stateMutability": "nonpayable",
      "type": "function"
    },
    {
      "constant": true,
      "inputs": [
        {
          "name": "from",
          "type": "address"
        }
      ],
      "name": "getBalancesFrom",
      "outputs": [
        {
          "name": "balance",
          "type": "uint256"
        }
      ],
      "payable": false,
      "stateMutability": "view",
      "type": "function"
    },
    {
      "constant": true,
      "inputs": [
        {
          "name": "from",
          "type": "address"
        },
        {
          "name": "spender",
          "type": "address"
        }
      ],
      "name": "allowance",
      "outputs": [
        {
          "name": "remaining",
          "type": "uint256"
        }
      ],
      "payable": false,
      "stateMutability": "view",
      "type": "function"
    },
    {
      "constant": false,
      "inputs": [
        {
          "name": "spender",
          "type": "address"
        },
        {
          "name": "tokens",
          "type": "uint256"
        },
        {
          "name": "data",
          "type": "bytes"
        }
      ],
      "name": "approveAndCall",
      "outputs": [
        {
          "name": "success",
          "type": "bool"
        }
      ],
      "payable": false,
      "stateMutability": "nonpayable",
      "type": "function"
    }
  ],
  "bytecode": "0x608060405234801561001057600080fd5b506040805180820190915260058082527f49444f544b000000000000000000000000000000000000000000000000000000602090920191825261005591600391610132565b506040805180820190915260158082527f496e697469616c2044617461206f66666572696e670000000000000000000000602090920191825261009a91600491610132565b50600060078190556005805460ff19169055612710600681905573e7e65d6f06362e9f188a9dbfee9c128fc4b19939808352600860209081527ff7bc74c2c0cff1e2aae4a47205b7a869dfbca6c1dec935f43fbd489f77a1365983905560408051938452519193927fddf252ad1be2c89b69c2b068fc378daa952ba7f163c4a11628f55a4df523b3ef929081900390910190a36101cd565b828054600181600116156101000203166002900490600052602060002090601f016020900481019282601f1061017357805160ff19168380011785556101a0565b828001600101855582156101a0579182015b828111156101a0578251825591602001919060010190610185565b506101ac9291506101b0565b5090565b6101ca91905b808211156101ac57600081556001016101b6565b90565b610ddf806101dc6000396000f3006080604052600436106101325763ffffffff7c010000000000000000000000000000000000000000000000000000000060003504166306fdde038114610137578063095ea7b3146101c15780630b51989a146101f957806318160ddd1461026257806323b872dd14610289578063313ce567146102b357806338266b22146102de57806339509351146102ff5780633eaaf86b1461032357806368a6cdf21461033857806370a082311461035957806395d89b411461037a5780639b0c86a514610359578063a293d1e81461038f578063a457c2d7146103aa578063a9059cbb146103ce578063b5931f7c146103f2578063cae9ca511461040d578063cf2cb61a14610476578063d05c78da146104a0578063d82ec53e146104bb578063dd62ed3e146104d0578063e6cb9013146104f7575b600080fd5b34801561014357600080fd5b5061014c610512565b6040805160208082528351818301528351919283929083019185019080838360005b8381101561018657818101518382015260200161016e565b50505050905090810190601f1680156101b35780820380516001836020036101000a031916815260200191505b509250505060405180910390f35b3480156101cd57600080fd5b506101e5600160a060020a03600435166024356105a0565b604080519115158252519081900360200190f35b34801561020557600080fd5b5060408051602060046024803582810135601f8101859004850286018501909652858552610260958335600160a060020a03169536956044949193909101919081908401838280828437509497506105f49650505050505050565b005b34801561026e57600080fd5b50610277610622565b60408051918252519081900360200190f35b34801561029557600080fd5b506101e5600160a060020a0360043581169060243516604435610655565b3480156102bf57600080fd5b506102c8610708565b6040805160ff9092168252519081900360200190f35b3480156102ea57600080fd5b5061014c600160a060020a0360043516610711565b34801561030b57600080fd5b506101e5600160a060020a03600435166024356107bc565b34801561032f57600080fd5b5061027761085a565b34801561034457600080fd5b5061014c600160a060020a0360043516610860565b34801561036557600080fd5b50610277600160a060020a03600435166108c8565b34801561038657600080fd5b5061014c6108e3565b34801561039b57600080fd5b5061027760043560243561093e565b3480156103b657600080fd5b506101e5600160a060020a03600435166024356109b5565b3480156103da57600080fd5b506101e5600160a060020a0360043516602435610a00565b3480156103fe57600080fd5b50610277600435602435610aa4565b34801561041957600080fd5b50604080516020600460443581810135601f81018490048402850184019095528484526101e5948235600160a060020a0316946024803595369594606494920191908190840183828082843750949750610ac59650505050505050565b34801561048257600080fd5b506101e5600160a060020a0360043581169060243516604435610c14565b3480156104ac57600080fd5b50610277600435602435610c6d565b3480156104c757600080fd5b50610277610c96565b3480156104dc57600080fd5b50610277600160a060020a0360043581169060243516610c9c565b34801561050357600080fd5b50610277600435602435610cc7565b6004805460408051602060026001851615610100026000190190941693909304601f810184900484028201840190925281815292918301828280156105985780601f1061056d57610100808354040283529160200191610598565b820191906000526020600020905b81548152906001019060200180831161057b57829003601f168201915b505050505081565b336000818152600960209081526040808320600160a060020a03871680855290835281842086905581518681529151939490939092600080516020610d94833981519152928290030190a350600192915050565b600160a060020a0382166000908152600a60209081526040909120825161061d92840190610cfb565b505050565b6000805260086020527f5eff886ea0ce6ca488a3d6e336d6c0f75f46d19b42c06ce5ee98e42c96d256c754600654035b90565b600160a060020a038316600090815260086020526040812054610678908361093e565b600160a060020a0380861660009081526008602052604080822093909355908516815220546106a79083610cc7565b600160a060020a0380851660008181526008602090815260409182902094909455805186815290519193928816927fddf252ad1be2c89b69c2b068fc378daa952ba7f163c4a11628f55a4df523b3ef92918290030190a35060019392505050565b60055460ff1681565b600160a060020a0381166000908152600a602090815260409182902080548351601f60026000196101006001861615020190931692909204918201849004840281018401909452808452606093928301828280156107b05780601f10610785576101008083540402835291602001916107b0565b820191906000526020600020905b81548152906001019060200180831161079357829003601f168201915b50505050509050919050565b6000600160a060020a03831615156107d357600080fd5b336000908152600160209081526040808320600160a060020a0387168452909152902054610807908363ffffffff610ccb16565b336000818152600160209081526040808320600160a060020a038916808552908352928190208590558051948552519193600080516020610d94833981519152929081900390910190a350600192915050565b60065481565b600a6020908152600091825260409182902080548351601f6002600019610100600186161502019093169290920491820184900484028101840190945280845290918301828280156105985780601f1061056d57610100808354040283529160200191610598565b600160a060020a031660009081526008602052604090205490565b6003805460408051602060026001851615610100026000190190941693909304601f810184900484028201840190925281815292918301828280156105985780601f1061056d57610100808354040283529160200191610598565b6000828211156109af57604080517f08c379a000000000000000000000000000000000000000000000000000000000815260206004820152600d60248201527f4e4f5420454e4f55474821212100000000000000000000000000000000000000604482015290519081900360640190fd5b50900390565b6000600160a060020a03831615156109cc57600080fd5b336000908152600160209081526040808320600160a060020a0387168452909152902054610807908363ffffffff610ce416565b33600090815260086020526040812054610a1a908361093e565b3360009081526008602052604080822092909255600160a060020a03851681522054610a469083610cc7565b600160a060020a0384166000818152600860209081526040918290209390935580518581529051919233927fddf252ad1be2c89b69c2b068fc378daa952ba7f163c4a11628f55a4df523b3ef9281900390910190a350600192915050565b6000808211610ab257600080fd5b8183811515610abd57fe5b049392505050565b336000818152600960209081526040808320600160a060020a03881680855290835281842087905581518781529151939490939092600080516020610d94833981519152928290030190a36040517f8f4ffcb10000000000000000000000000000000000000000000000000000000081523360048201818152602483018690523060448401819052608060648501908152865160848601528651600160a060020a038a1695638f4ffcb195948a94938a939192909160a490910190602085019080838360005b83811015610ba3578181015183820152602001610b8b565b50505050905090810190601f168015610bd05780820380516001836020036101000a031916815260200191505b5095505050505050600060405180830381600087803b158015610bf257600080fd5b505af1158015610c06573d6000803e3d6000fd5b506001979650505050505050565b600160a060020a0380841660008181526009602090815260408083209487168084529482528083208690558051868152905192949392600080516020610d94833981519152929181900390910190a35060019392505050565b6000821580610c865750818382811515610c8357fe5b04145b1515610c9157600080fd5b500290565b60075481565b600160a060020a03918216600090815260096020908152604080832093909416825291909152205490565b0190565b600082820183811015610cdd57600080fd5b9392505050565b60008083831115610cf457600080fd5b5050900390565b828054600181600116156101000203166002900490600052602060002090601f016020900481019282601f10610d3c57805160ff1916838001178555610d69565b82800160010185558215610d69579182015b82811115610d69578251825591602001919060010190610d4e565b50610d75929150610d79565b5090565b61065291905b80821115610d755760008155600101610d7f56008c5be1e5ebec7d5bd14f71427d1e84f3dd0314c0f7b2291e5b200ac8c7c3b925a165627a7a72305820264762e73b691e8da994ebff0c3c98e7ab3d8903ca798b7ebfdc89888fa543350029",
  "source": "// SPDX-License-Identifier: MIT\npragma solidity >=0.4.24;\n\nimport \"openzeppelin-solidity/contracts/token/ERC20/ERC20.sol\";\n\n// ----------------------------------------------------------------------------\n// Sample token contract\n//\n// Symbol        : VSWT\n// Name          : Visual Waifu Token\n// Total supply  : 100000\n// Decimals      : 0\n// Owner Account : 0x8e889576714c3EE6b01878286adeE897Be5036cc\n//\n// Enjoy.\n//\n// (c) by Juan Cruz Martinez 2020. MIT Licence.\n// ----------------------------------------------------------------------------\n// ----------------------------------------------------------------------------\n// Lib: Safe Math\n// ----------------------------------------------------------------------------\ncontract SafeMath2 {\n    function safeAdd(uint a, uint b) public pure returns (uint c) {\n        return c = a + b;\n        //require(c >= a);\n    }\n    function safeSub(uint a, uint b) public pure returns (uint c) {\n        require(b <= a, \"NOT ENOUGH!!!\");\n        return c = a - b;\n    }\n    function safeMul(uint a, uint b) public pure returns (uint c) {\n        require(a == 0 || c / a == b);\n        return c = a * b;\n    }\n    function safeDiv(uint a, uint b) public pure returns (uint c) {\n        require(b > 0);\n        return c = a / b;\n    }\n}\n/**\nERC Token Standard #20 Interface\nhttps://github.com/ethereum/EIPs/blob/master/EIPS/eip-20-token-standard.md\n*/\ncontract ERC20Interface {\n    function totalSupply() public constant returns (uint);\n    function balanceOf(address tokenOwner) public constant returns (uint balance);\n    function allowance(address tokenOwner, address spender) public constant returns (uint remaining);\n    function transfer(address to, uint tokens) public returns (bool success);\n    function approve(address spender, uint tokens) public returns (bool success);\n    function transferFrom(address from, address to, uint tokens) public returns (bool success);\n    event Transfer(address indexed from, address indexed to, uint tokens);\n    event Approval(address indexed tokenOwner, address indexed spender, uint tokens);\n}\n/**\nContract function to receive approval and execute function in one call\nBorrowed from MiniMeToken\n*/\ncontract ApproveAndCallFallBack {\n    function receiveApproval(address from, uint256 tokens, address token, bytes data) public;\n}\n\n\n/**\nERC20 Token, with the addition of symbol, name and decimals and assisted token transfers\n*/\ncontract IDO is ERC20, SafeMath2 {\n    string public symbol;\n    string public  name;\n    uint8 public decimals;\n    uint public _totalSupply;\n    uint public networkid;\n    mapping(address => uint) balances;\n    mapping(address => mapping(address => uint)) allowed;\n    mapping(address => string) public datas;\n    // ------------------------------------------------------------------------\n    // Constructor\n    // ------------------------------------------------------------------------\n    constructor() public {\n        symbol = \"IDOTK\";\n        name = \"Initial Data offering\";\n        networkid = 0 ;\n        decimals = 0;\n        _totalSupply = 10000;\n        balances[0xe7E65D6F06362e9F188A9DbFeE9C128Fc4B19939] = _totalSupply;\n        emit Transfer(address(0), 0xe7E65D6F06362e9F188A9DbFeE9C128Fc4B19939, _totalSupply);\n    }\n\n    // ------------------------------------------------------------------------\n    // get data\n    // ------------------------------------------------------------------------  \n    function getData(address sender) public constant returns (string) {\n        return datas[sender];\n    }\n\n    // ------------------------------------------------------------------------\n    // set data\n    // ------------------------------------------------------------------------  \n    function setData( address adr , string givenData) public {\n        //require(msg.value == 1);\n        //datas[msg.sender] = givenData;\n        datas[adr] = givenData;\n    }\n\n    // ------------------------------------------------------------------------\n    // Total supply\n    // ------------------------------------------------------------------------\n    function totalSupply() public constant returns (uint) {\n        return _totalSupply  - balances[address(0)];\n    }\n    // ------------------------------------------------------------------------\n    // Get the token balance for account tokenOwner\n    // ------------------------------------------------------------------------\n    function balanceOf(address tokenOwner) public constant returns (uint balance) {\n        return balances[tokenOwner];\n    }\n    // ------------------------------------------------------------------------\n    // Transfer the balance from token owner's account to to account\n    // - Owner's account must have sufficient balance to transfer\n    // - 0 value transfers are allowed\n    // balances[address van payment-channel] => 20\n    //\n    // ------------------------------------------------------------------------\n    function transfer(address to, uint tokens) public returns (bool success) {\n        balances[msg.sender] = safeSub(balances[msg.sender], tokens);\n        balances[to] = safeAdd(balances[to], tokens);\n        emit Transfer(msg.sender, to, tokens);\n        return true;\n    }\n    // ------------------------------------------------------------------------\n    // Token owner can approve for spender to transferFrom(...) tokens\n    // from the token owner's account\n    //\n    // https://github.com/ethereum/EIPs/blob/master/EIPS/eip-20-token-standard.md\n    // recommends that there are no checks for the approval double-spend attack\n    // as this should be implemented in user interfaces \n    // ------------------------------------------------------------------------\n    function approve(address spender, uint256 tokens) public returns (bool success) {\n        allowed[msg.sender][spender] = tokens;\n        emit Approval(msg.sender, spender, tokens);\n        return true;\n    }\n    function approve2(address from, address spender, uint tokens) public returns (bool success) {\n        allowed[from][spender] = tokens;\n        emit Approval(from, spender, tokens);\n        return true;\n    }\n    // ------------------------------------------------------------------------\n    // Transfer tokens from the from account to the to account\n    // \n    // The calling account must already have sufficient tokens approve(...)-d\n    // for spending from the from account and\n    // - From account must have sufficient balance to transfer\n    // - Spender must have sufficient allowance to transfer\n    // - 0 value transfers are allowed\n    // ------------------------------------------------------------------------\n    function transferFrom(address from, address to, uint tokens) public returns (bool success) {\n        balances[from] = safeSub(balances[from], tokens);\n        //allowed[from][msg.sender] = safeSub(allowed[from][msg.sender], tokens);\n        //allowed[from][to] = safeSub(allowed[from][to], tokens);\n        balances[to] = safeAdd(balances[to], tokens);\n        emit Transfer(from, to, tokens);\n        return true;\n    }\n\n    function getBalancesFrom(address from) public view returns (uint balance){\n        return balances[from];\n    }\n\n    // ------------------------------------------------------------------------\n    // Returns the amount of tokens approved by the owner that can be\n    // transferred to the spender's account\n    // ------------------------------------------------------------------------\n    function allowance(address from, address spender) public view returns (uint remaining) {\n        remaining  = allowed[from][spender];\n        return remaining;\n    }\n    // ------------------------------------------------------------------------\n    // Token owner can approve for spender to transferFrom(...) tokens\n    // from the token owner's account. The spender contract function\n    // receiveApproval(...) is then executed\n    // ------------------------------------------------------------------------\n    function approveAndCall(address spender, uint tokens, bytes data) public returns (bool success) {\n        allowed[msg.sender][spender] = tokens;\n        emit Approval(msg.sender, spender, tokens);\n        ApproveAndCallFallBack(spender).receiveApproval(msg.sender, tokens, this, data);\n        return true;\n    }\n    // ------------------------------------------------------------------------\n    // Don't accept ETH\n    // ------------------------------------------------------------------------\n    function () public payable {\n        revert();\n    }\n}",
  "sourcePath": "/home/jeffrey/token/ido-smartcontract/contracts/IDO.sol",
  "compiler": {
    "name": "solc",
    "version": "0.4.24+commit.e67f0147.Emscripten.clang"
  },
  "schemaVersion": "3.2.5",
  "updatedAt": "2020-10-09T16:52:26.610Z",
  "networkType": "ethereum",
  "devdoc": {
    "methods": {
      "decreaseAllowance(address,uint256)": {
        "details": "Decrease the amount of tokens that an owner allowed to a spender. approve should be called when allowed_[_spender] == 0. To decrement allowed value is better to use this function to avoid 2 calls (and wait until the first transaction is mined) From MonolithDAO Token.sol",
        "params": {
          "spender": "The address which will spend the funds.",
          "subtractedValue": "The amount of tokens to decrease the allowance by."
        }
      },
      "increaseAllowance(address,uint256)": {
        "details": "Increase the amount of tokens that an owner allowed to a spender. approve should be called when allowed_[_spender] == 0. To increment allowed value is better to use this function to avoid 2 calls (and wait until the first transaction is mined) From MonolithDAO Token.sol",
        "params": {
          "addedValue": "The amount of tokens to increase the allowance by.",
          "spender": "The address which will spend the funds."
        }
      }
    }
  },
  "userdoc": {
    "methods": {}
  }
}