{
  "contractName": "IDO",
  "abi": [
    {
      "constant": true,
      "inputs": [],
      "name": "name",
      "outputs": [
        {
          "name": "",
          "type": "string"
        }
      ],
      "payable": false,
      "stateMutability": "view",
      "type": "function"
    },
    {
      "constant": true,
      "inputs": [],
      "name": "decimals",
      "outputs": [
        {
          "name": "",
          "type": "uint8"
        }
      ],
      "payable": false,
      "stateMutability": "view",
      "type": "function"
    },
    {
      "constant": true,
      "inputs": [],
      "name": "_totalSupply",
      "outputs": [
        {
          "name": "",
          "type": "uint256"
        }
      ],
      "payable": false,
      "stateMutability": "view",
      "type": "function"
    },
    {
      "constant": true,
      "inputs": [
        {
          "name": "",
          "type": "address"
        },
        {
          "name": "",
          "type": "address"
        }
      ],
      "name": "allowed",
      "outputs": [
        {
          "name": "",
          "type": "uint256"
        }
      ],
      "payable": false,
      "stateMutability": "view",
      "type": "function"
    },
    {
      "constant": true,
      "inputs": [],
      "name": "symbol",
      "outputs": [
        {
          "name": "",
          "type": "string"
        }
      ],
      "payable": false,
      "stateMutability": "view",
      "type": "function"
    },
    {
      "constant": true,
      "inputs": [
        {
          "name": "a",
          "type": "uint256"
        },
        {
          "name": "b",
          "type": "uint256"
        }
      ],
      "name": "safeSub",
      "outputs": [
        {
          "name": "c",
          "type": "uint256"
        }
      ],
      "payable": false,
      "stateMutability": "pure",
      "type": "function"
    },
    {
      "constant": true,
      "inputs": [
        {
          "name": "a",
          "type": "uint256"
        },
        {
          "name": "b",
          "type": "uint256"
        }
      ],
      "name": "safeDiv",
      "outputs": [
        {
          "name": "c",
          "type": "uint256"
        }
      ],
      "payable": false,
      "stateMutability": "pure",
      "type": "function"
    },
    {
      "constant": true,
      "inputs": [
        {
          "name": "a",
          "type": "uint256"
        },
        {
          "name": "b",
          "type": "uint256"
        }
      ],
      "name": "safeMul",
      "outputs": [
        {
          "name": "c",
          "type": "uint256"
        }
      ],
      "payable": false,
      "stateMutability": "pure",
      "type": "function"
    },
    {
      "constant": true,
      "inputs": [],
      "name": "networkid",
      "outputs": [
        {
          "name": "",
          "type": "uint256"
        }
      ],
      "payable": false,
      "stateMutability": "view",
      "type": "function"
    },
    {
      "constant": true,
      "inputs": [
        {
          "name": "a",
          "type": "uint256"
        },
        {
          "name": "b",
          "type": "uint256"
        }
      ],
      "name": "safeAdd",
      "outputs": [
        {
          "name": "c",
          "type": "uint256"
        }
      ],
      "payable": false,
      "stateMutability": "pure",
      "type": "function"
    },
    {
      "inputs": [],
      "payable": false,
      "stateMutability": "nonpayable",
      "type": "constructor"
    },
    {
      "anonymous": false,
      "inputs": [
        {
          "indexed": true,
          "name": "from",
          "type": "address"
        },
        {
          "indexed": true,
          "name": "to",
          "type": "address"
        },
        {
          "indexed": false,
          "name": "tokens",
          "type": "uint256"
        }
      ],
      "name": "Transfer",
      "type": "event"
    },
    {
      "anonymous": false,
      "inputs": [
        {
          "indexed": true,
          "name": "tokenOwner",
          "type": "address"
        },
        {
          "indexed": true,
          "name": "spender",
          "type": "address"
        },
        {
          "indexed": false,
          "name": "tokens",
          "type": "uint256"
        }
      ],
      "name": "Approval",
      "type": "event"
    },
    {
      "constant": true,
      "inputs": [],
      "name": "totalSupply",
      "outputs": [
        {
          "name": "",
          "type": "uint256"
        }
      ],
      "payable": false,
      "stateMutability": "view",
      "type": "function"
    },
    {
      "constant": true,
      "inputs": [
        {
          "name": "tokenOwner",
          "type": "address"
        }
      ],
      "name": "balanceOf",
      "outputs": [
        {
          "name": "balance",
          "type": "uint256"
        }
      ],
      "payable": false,
      "stateMutability": "view",
      "type": "function"
    },
    {
      "constant": false,
      "inputs": [
        {
          "name": "to",
          "type": "address"
        },
        {
          "name": "tokens",
          "type": "uint256"
        }
      ],
      "name": "transfer",
      "outputs": [
        {
          "name": "success",
          "type": "bool"
        }
      ],
      "payable": false,
      "stateMutability": "nonpayable",
      "type": "function"
    },
    {
      "constant": false,
      "inputs": [
        {
          "name": "spender",
          "type": "address"
        },
        {
          "name": "tokens",
          "type": "uint256"
        }
      ],
      "name": "approve",
      "outputs": [
        {
          "name": "success",
          "type": "bool"
        }
      ],
      "payable": false,
      "stateMutability": "nonpayable",
      "type": "function"
    },
    {
      "constant": false,
      "inputs": [
        {
          "name": "from",
          "type": "address"
        },
        {
          "name": "spender",
          "type": "address"
        },
        {
          "name": "tokens",
          "type": "uint256"
        }
      ],
      "name": "approve2",
      "outputs": [
        {
          "name": "success",
          "type": "bool"
        }
      ],
      "payable": false,
      "stateMutability": "nonpayable",
      "type": "function"
    },
    {
      "constant": false,
      "inputs": [
        {
          "name": "from",
          "type": "address"
        },
        {
          "name": "to",
          "type": "address"
        },
        {
          "name": "tokens",
          "type": "uint256"
        }
      ],
      "name": "transferFrom",
      "outputs": [
        {
          "name": "success",
          "type": "bool"
        }
      ],
      "payable": false,
      "stateMutability": "nonpayable",
      "type": "function"
    },
    {
      "constant": true,
      "inputs": [
        {
          "name": "a",
          "type": "uint256"
        },
        {
          "name": "b",
          "type": "uint256"
        }
      ],
      "name": "testSafeAdd",
      "outputs": [
        {
          "name": "calculation",
          "type": "uint256"
        }
      ],
      "payable": false,
      "stateMutability": "pure",
      "type": "function"
    },
    {
      "constant": true,
      "inputs": [
        {
          "name": "a",
          "type": "uint256"
        },
        {
          "name": "b",
          "type": "uint256"
        }
      ],
      "name": "testSafeSub",
      "outputs": [
        {
          "name": "calculation",
          "type": "uint256"
        }
      ],
      "payable": false,
      "stateMutability": "pure",
      "type": "function"
    },
    {
      "constant": true,
      "inputs": [
        {
          "name": "from",
          "type": "address"
        }
      ],
      "name": "getBalancesFrom",
      "outputs": [
        {
          "name": "balance",
          "type": "uint256"
        }
      ],
      "payable": false,
      "stateMutability": "view",
      "type": "function"
    },
    {
      "constant": false,
      "inputs": [
        {
          "name": "to",
          "type": "address"
        },
        {
          "name": "value",
          "type": "uint256"
        }
      ],
      "name": "approveEscrow",
      "outputs": [
        {
          "name": "success",
          "type": "bool"
        }
      ],
      "payable": false,
      "stateMutability": "nonpayable",
      "type": "function"
    },
    {
      "constant": true,
      "inputs": [
        {
          "name": "from",
          "type": "address"
        },
        {
          "name": "spender",
          "type": "address"
        }
      ],
      "name": "allowance",
      "outputs": [
        {
          "name": "remaining",
          "type": "uint256"
        }
      ],
      "payable": false,
      "stateMutability": "view",
      "type": "function"
    },
    {
      "constant": false,
      "inputs": [
        {
          "name": "from",
          "type": "address"
        },
        {
          "name": "spender",
          "type": "address"
        },
        {
          "name": "val",
          "type": "uint256"
        }
      ],
      "name": "approveCheck",
      "outputs": [
        {
          "name": "success",
          "type": "uint256"
        }
      ],
      "payable": false,
      "stateMutability": "nonpayable",
      "type": "function"
    },
    {
      "constant": false,
      "inputs": [
        {
          "name": "spender",
          "type": "address"
        },
        {
          "name": "tokens",
          "type": "uint256"
        },
        {
          "name": "data",
          "type": "bytes"
        }
      ],
      "name": "approveAndCall",
      "outputs": [
        {
          "name": "success",
          "type": "bool"
        }
      ],
      "payable": false,
      "stateMutability": "nonpayable",
      "type": "function"
    }
  ],
  "bytecode": "0x608060405234801561001057600080fd5b506040805180820190915260058082527f49444f544b000000000000000000000000000000000000000000000000000000602090920191825261005591600291610195565b506040805180820190915260158082527f496e697469616c2044617461206f66666572696e670000000000000000000000602090920191825261009a91600391610195565b50600060068190556004805460ff19169055612710600555600760209081526113887f2022c570446c8000b4771664bd246547749597ce03b1e9d3832c448d7d9c87be819055733948b75cb2256761245cb992668b4507e2ec221483527f515a309ba4a44fe737576e3b4211afae84b6207ef4a2abba0055398a99ac304081905560408051918252517314b1fc6bc8a831ed0d90b282a97f04b48bb608b99392600080516020610db9833981519152928290030190a3600554604080516002909204825251733948b75cb2256761245cb992668b4507e2ec221491600091600080516020610db98339815191529181900360200190a3610230565b828054600181600116156101000203166002900490600052602060002090601f016020900481019282601f106101d657805160ff1916838001178555610203565b82800160010185558215610203579182015b828111156102035782518255916020019190600101906101e8565b5061020f929150610213565b5090565b61022d91905b8082111561020f5760008155600101610219565b90565b610b7a8061023f6000396000f3006080604052600436106101325763ffffffff7c010000000000000000000000000000000000000000000000000000000060003504166306fdde038114610137578063095ea7b3146101c157806318160ddd146101f957806323b872dd14610220578063313ce5671461024a5780633eaaf86b1461027557806345b32c121461028a5780635c658165146102b457806361e4fd2b146102db57806370a08231146102ff57806395d89b41146103205780639b0c86a5146102ff578063a293d1e814610335578063a9059cbb14610350578063b5931f7c14610374578063cae9ca511461038f578063cf2cb61a146103f8578063d05c78da14610422578063d82ec53e1461043d578063dd62ed3e14610452578063de47864c14610479578063e6cb901314610494578063ec0da330146104af575b600080fd5b34801561014357600080fd5b5061014c6104ca565b6040805160208082528351818301528351919283929083019185019080838360005b8381101561018657818101518382015260200161016e565b50505050905090810190601f1680156101b35780820380516001836020036101000a031916815260200191505b509250505060405180910390f35b3480156101cd57600080fd5b506101e5600160a060020a0360043516602435610558565b604080519115158252519081900360200190f35b34801561020557600080fd5b5061020e6105ac565b60408051918252519081900360200190f35b34801561022c57600080fd5b506101e5600160a060020a03600435811690602435166044356105de565b34801561025657600080fd5b5061025f610691565b6040805160ff9092168252519081900360200190f35b34801561028157600080fd5b5061020e61069a565b34801561029657600080fd5b5061020e600160a060020a03600435811690602435166044356106a0565b3480156102c057600080fd5b5061020e600160a060020a036004358116906024351661071c565b3480156102e757600080fd5b506101e5600160a060020a0360043516602435610739565b34801561030b57600080fd5b5061020e600160a060020a036004351661075a565b34801561032c57600080fd5b5061014c610775565b34801561034157600080fd5b5061020e6004356024356107cd565b34801561035c57600080fd5b506101e5600160a060020a0360043516602435610844565b34801561038057600080fd5b5061020e6004356024356108e8565b34801561039b57600080fd5b50604080516020600460443581810135601f81018490048402850184019095528484526101e5948235600160a060020a03169460248035953695946064949201919081908401838280828437509497506109099650505050505050565b34801561040457600080fd5b506101e5600160a060020a0360043581169060243516604435610a58565b34801561042e57600080fd5b5061020e600435602435610ab1565b34801561044957600080fd5b5061020e610ada565b34801561045e57600080fd5b5061020e600160a060020a0360043581169060243516610ae0565b34801561048557600080fd5b5061020e600435602435610b0b565b3480156104a057600080fd5b5061020e600435602435610b1e565b3480156104bb57600080fd5b5061020e600435602435610b22565b6003805460408051602060026001851615610100026000190190941693909304601f810184900484028201840190925281815292918301828280156105505780601f1061052557610100808354040283529160200191610550565b820191906000526020600020905b81548152906001019060200180831161053357829003601f168201915b505050505081565b336000818152600860209081526040808320600160a060020a03871680855290835281842086905581518681529151939490939092600080516020610b2f833981519152928290030190a350600192915050565b6000805260076020527f6d5257204ebe7d88fd91ae87941cb2dd9d8062b64ae5a2bd2d28ec40b9fbf6df546005540390565b600160a060020a03831660009081526007602052604081205461060190836107cd565b600160a060020a0380861660009081526007602052604080822093909355908516815220546106309083610b1e565b600160a060020a0380851660008181526007602090815260409182902094909455805186815290519193928816927fddf252ad1be2c89b69c2b068fc378daa952ba7f163c4a11628f55a4df523b3ef92918290030190a35060019392505050565b60045460ff1681565b60055481565b600160a060020a0380841660008181526008602090815260408083209487168084529482528083208690558051868152905192949392600080516020610b2f833981519152929181900390910190a35050600160a060020a03918216600090815260086020908152604080832093909416825291909152205490565b600860209081526000928352604080842090915290825290205481565b60006107458383610558565b506107508383610844565b5060019392505050565b600160a060020a031660009081526007602052604090205490565b6002805460408051602060018416156101000260001901909316849004601f810184900484028201840190925281815292918301828280156105505780601f1061052557610100808354040283529160200191610550565b60008282111561083e57604080517f08c379a000000000000000000000000000000000000000000000000000000000815260206004820152600d60248201527f4e4f5420454e4f55474821212100000000000000000000000000000000000000604482015290519081900360640190fd5b50900390565b3360009081526007602052604081205461085e90836107cd565b3360009081526007602052604080822092909255600160a060020a0385168152205461088a9083610b1e565b600160a060020a0384166000818152600760209081526040918290209390935580518581529051919233927fddf252ad1be2c89b69c2b068fc378daa952ba7f163c4a11628f55a4df523b3ef9281900390910190a350600192915050565b60008082116108f657600080fd5b818381151561090157fe5b049392505050565b336000818152600860209081526040808320600160a060020a03881680855290835281842087905581518781529151939490939092600080516020610b2f833981519152928290030190a36040517f8f4ffcb10000000000000000000000000000000000000000000000000000000081523360048201818152602483018690523060448401819052608060648501908152865160848601528651600160a060020a038a1695638f4ffcb195948a94938a939192909160a490910190602085019080838360005b838110156109e75781810151838201526020016109cf565b50505050905090810190601f168015610a145780820380516001836020036101000a031916815260200191505b5095505050505050600060405180830381600087803b158015610a3657600080fd5b505af1158015610a4a573d6000803e3d6000fd5b506001979650505050505050565b600160a060020a0380841660008181526008602090815260408083209487168084529482528083208690558051868152905192949392600080516020610b2f833981519152929181900390910190a35060019392505050565b6000821580610aca5750818382811515610ac757fe5b04145b1515610ad557600080fd5b500290565b60065481565b600160a060020a03918216600090815260086020908152604080832093909416825291909152205490565b6000610b178383610b1e565b9392505050565b0190565b6000610b1783836107cd56008c5be1e5ebec7d5bd14f71427d1e84f3dd0314c0f7b2291e5b200ac8c7c3b925a165627a7a72305820a2d5246e80cbfc82dfe820e561f5ec2013b0c33101ed6312d5daab58f26014280029ddf252ad1be2c89b69c2b068fc378daa952ba7f163c4a11628f55a4df523b3ef",
  "source": "// SPDX-License-Identifier: MIT\npragma solidity >=0.4.24;\n\nimport \"openzeppelin-solidity/contracts/token/ERC20/ERC20.sol\";\n\n// ----------------------------------------------------------------------------\n// Sample token contract\n//\n// Symbol        : VSWT\n// Name          : Visual Waifu Token\n// Total supply  : 100000\n// Decimals      : 0\n// Owner Account : 0x8e889576714c3EE6b01878286adeE897Be5036cc\n//\n// Enjoy.\n//\n// (c) by Juan Cruz Martinez 2020. MIT Licence.\n// ----------------------------------------------------------------------------\n// ----------------------------------------------------------------------------\n// Lib: Safe Math\n// ----------------------------------------------------------------------------\ncontract SafeMath2 {\n    function safeAdd(uint a, uint b) public pure returns (uint c) {\n        return c = a + b;\n        //require(c >= a);\n    }\n    function safeSub(uint a, uint b) public pure returns (uint c) {\n        require(b <= a, \"NOT ENOUGH!!!\");\n        return c = a - b;\n    }\n    function safeMul(uint a, uint b) public pure returns (uint c) {\n        require(a == 0 || c / a == b);\n        return c = a * b;\n    }\n    function safeDiv(uint a, uint b) public pure returns (uint c) {\n        require(b > 0);\n        return c = a / b;\n    }\n}\n/**\nERC Token Standard #20 Interface\nhttps://github.com/ethereum/EIPs/blob/master/EIPS/eip-20-token-standard.md\n*/\ncontract ERC20Interface {\n    function totalSupply() public constant returns (uint);\n    function balanceOf(address tokenOwner) public constant returns (uint balance);\n    function allowance(address tokenOwner, address spender) public constant returns (uint remaining);\n    function transfer(address to, uint tokens) public returns (bool success);\n    function approve(address spender, uint tokens) public returns (bool success);\n    function transferFrom(address from, address to, uint tokens) public returns (bool success);\n    event Transfer(address indexed from, address indexed to, uint tokens);\n    event Approval(address indexed tokenOwner, address indexed spender, uint tokens);\n    mapping(address => uint) balances;\n    mapping(address => mapping(address => uint)) private allowed;    \n}\n/**\nContract function to receive approval and execute function in one call\nBorrowed from MiniMeToken\n*/\ncontract ApproveAndCallFallBack {\n    function receiveApproval(address from, uint256 tokens, address token, bytes data) public;\n}\n/**\nERC20 Token, with the addition of symbol, name and decimals and assisted token transfers\n*/\ncontract IDO is ERC20Interface, SafeMath2 {\n    string public symbol;\n    string public  name;\n    uint8 public decimals;\n    uint public _totalSupply;\n    uint public networkid;\n    mapping(address => uint) balances;\n    mapping(address => mapping(address => uint)) public allowed;\n    // ------------------------------------------------------------------------\n    // Constructor\n    // ------------------------------------------------------------------------\n    constructor() public {\n        symbol = \"IDOTK\";\n        name = \"Initial Data offering\";\n        networkid = 0 ;\n        decimals = 0;\n        _totalSupply = 10000;\n        balances[0x14B1fC6Bc8a831ED0d90b282a97F04b48Bb608B9] = _totalSupply / 2;\n        balances[0x3948b75cB2256761245CB992668B4507E2eC2214] = _totalSupply / 2;\n        emit Transfer(address(0), 0x14B1fC6Bc8a831ED0d90b282a97F04b48Bb608B9, _totalSupply / 2);\n        emit Transfer(address(0), 0x3948b75cB2256761245CB992668B4507E2eC2214, _totalSupply / 2);\n    }\n\n  \n\n    // ------------------------------------------------------------------------\n    // Total supply\n    // ------------------------------------------------------------------------\n    function totalSupply() public constant returns (uint) {\n        return _totalSupply  - balances[address(0)];\n    }\n    // ------------------------------------------------------------------------\n    // Get the token balance for account tokenOwner\n    // ------------------------------------------------------------------------\n    function balanceOf(address tokenOwner) public constant returns (uint balance) {\n        return balances[tokenOwner];\n    }\n    // ------------------------------------------------------------------------\n    // Transfer the balance from token owner's account to to account\n    // - Owner's account must have sufficient balance to transfer\n    // - 0 value transfers are allowed\n    // ------------------------------------------------------------------------\n    function transfer(address to, uint tokens) public returns (bool success) {\n        balances[msg.sender] = safeSub(balances[msg.sender], tokens);\n        balances[to] = safeAdd(balances[to], tokens);\n        emit Transfer(msg.sender, to, tokens);\n        return true;\n    }\n    // ------------------------------------------------------------------------\n    // Token owner can approve for spender to transferFrom(...) tokens\n    // from the token owner's account\n    //\n    // https://github.com/ethereum/EIPs/blob/master/EIPS/eip-20-token-standard.md\n    // recommends that there are no checks for the approval double-spend attack\n    // as this should be implemented in user interfaces \n    // ------------------------------------------------------------------------\n    function approve(address spender, uint256 tokens) public returns (bool success) {\n        allowed[msg.sender][spender] = tokens;\n        emit Approval(msg.sender, spender, tokens);\n        return true;\n    }\n    function approve2(address from, address spender, uint tokens) public returns (bool success) {\n        allowed[from][spender] = tokens;\n        emit Approval(from, spender, tokens);\n        return true;\n    }\n    // ------------------------------------------------------------------------\n    // Transfer tokens from the from account to the to account\n    // \n    // The calling account must already have sufficient tokens approve(...)-d\n    // for spending from the from account and\n    // - From account must have sufficient balance to transfer\n    // - Spender must have sufficient allowance to transfer\n    // - 0 value transfers are allowed\n    // ------------------------------------------------------------------------\n    function transferFrom(address from, address to, uint tokens) public returns (bool success) {\n        balances[from] = safeSub(balances[from], tokens);\n        //allowed[from][msg.sender] = safeSub(allowed[from][msg.sender], tokens);\n        //allowed[from][to] = safeSub(allowed[from][to], tokens);\n        balances[to] = safeAdd(balances[to], tokens);\n        emit Transfer(from, to, tokens);\n        return true;\n    }\n\n    function testSafeAdd(uint a, uint b) public pure returns (uint calculation){\n        calculation = safeAdd(a,b);\n    }\n\n    function testSafeSub(uint a, uint b) public pure returns (uint calculation){\n        calculation = safeSub(a,b);\n    }\n\n    function getBalancesFrom(address from) public view returns (uint balance){\n        return balances[from];\n    }\n\n    function approveEscrow(address to, uint value) public returns (bool success) {\n        approve(to, value);\n        transfer(to, value);\n        return true;\n    }\n    // ------------------------------------------------------------------------\n    // Returns the amount of tokens approved by the owner that can be\n    // transferred to the spender's account\n    // ------------------------------------------------------------------------\n    function allowance(address from, address spender) public view returns (uint remaining) {\n        remaining  = allowed[from][spender];\n        return remaining;\n    }\n    function approveCheck(address from, address spender, uint val) public returns (uint success) {\n        allowed[from][spender] = val;\n        emit Approval(from, spender, val);\n        return allowed[from][spender];\n    }    \n    // ------------------------------------------------------------------------\n    // Token owner can approve for spender to transferFrom(...) tokens\n    // from the token owner's account. The spender contract function\n    // receiveApproval(...) is then executed\n    // ------------------------------------------------------------------------\n    function approveAndCall(address spender, uint tokens, bytes data) public returns (bool success) {\n        allowed[msg.sender][spender] = tokens;\n        emit Approval(msg.sender, spender, tokens);\n        ApproveAndCallFallBack(spender).receiveApproval(msg.sender, tokens, this, data);\n        return true;\n    }\n    // ------------------------------------------------------------------------\n    // Don't accept ETH\n    // ------------------------------------------------------------------------\n    /*function () public payable {\n        revert();\n    }*/\n}",
  "sourcePath": "/home/jeffrey/token/ido-smartcontract/contracts/IDO.sol",
  "compiler": {
    "name": "solc",
    "version": "0.4.24+commit.e67f0147.Emscripten.clang"
  },
  "schemaVersion": "3.2.5",
  "updatedAt": "2020-10-07T15:03:23.844Z",
  "networkType": "ethereum",
  "devdoc": {
    "methods": {}
  },
  "userdoc": {
    "methods": {}
  }
}