{
  "contractName": "MultiPartyEscrow",
  "abi": [
    {
      "constant": true,
      "inputs": [
        {
          "name": "",
          "type": "address"
        }
      ],
      "name": "balances",
      "outputs": [
        {
          "name": "",
          "type": "uint256"
        }
      ],
      "payable": false,
      "stateMutability": "view",
      "type": "function"
    },
    {
      "constant": true,
      "inputs": [
        {
          "name": "",
          "type": "bytes32"
        }
      ],
      "name": "usedMessages",
      "outputs": [
        {
          "name": "",
          "type": "bool"
        }
      ],
      "payable": false,
      "stateMutability": "view",
      "type": "function"
    },
    {
      "constant": true,
      "inputs": [
        {
          "name": "",
          "type": "uint256"
        }
      ],
      "name": "channels",
      "outputs": [
        {
          "name": "nonce",
          "type": "uint256"
        },
        {
          "name": "sender",
          "type": "address"
        },
        {
          "name": "signer",
          "type": "address"
        },
        {
          "name": "recipient",
          "type": "address"
        },
        {
          "name": "groupId",
          "type": "bytes32"
        },
        {
          "name": "value",
          "type": "uint256"
        },
        {
          "name": "expiration",
          "type": "uint256"
        }
      ],
      "payable": false,
      "stateMutability": "view",
      "type": "function"
    },
    {
      "constant": true,
      "inputs": [],
      "name": "nextChannelId",
      "outputs": [
        {
          "name": "",
          "type": "uint256"
        }
      ],
      "payable": false,
      "stateMutability": "view",
      "type": "function"
    },
    {
      "constant": true,
      "inputs": [],
      "name": "token",
      "outputs": [
        {
          "name": "",
          "type": "address"
        }
      ],
      "payable": false,
      "stateMutability": "view",
      "type": "function"
    },
    {
      "inputs": [
        {
          "name": "_token",
          "type": "address"
        }
      ],
      "payable": false,
      "stateMutability": "nonpayable",
      "type": "constructor"
    },
    {
      "anonymous": false,
      "inputs": [
        {
          "indexed": false,
          "name": "channelId",
          "type": "uint256"
        },
        {
          "indexed": false,
          "name": "nonce",
          "type": "uint256"
        },
        {
          "indexed": true,
          "name": "sender",
          "type": "address"
        },
        {
          "indexed": false,
          "name": "signer",
          "type": "address"
        },
        {
          "indexed": true,
          "name": "recipient",
          "type": "address"
        },
        {
          "indexed": true,
          "name": "groupId",
          "type": "bytes32"
        },
        {
          "indexed": false,
          "name": "amount",
          "type": "uint256"
        },
        {
          "indexed": false,
          "name": "expiration",
          "type": "uint256"
        }
      ],
      "name": "ChannelOpen",
      "type": "event"
    },
    {
      "anonymous": false,
      "inputs": [
        {
          "indexed": true,
          "name": "channelId",
          "type": "uint256"
        },
        {
          "indexed": false,
          "name": "nonce",
          "type": "uint256"
        },
        {
          "indexed": true,
          "name": "recipient",
          "type": "address"
        },
        {
          "indexed": false,
          "name": "claimAmount",
          "type": "uint256"
        },
        {
          "indexed": false,
          "name": "plannedAmount",
          "type": "uint256"
        },
        {
          "indexed": false,
          "name": "sendBackAmount",
          "type": "uint256"
        },
        {
          "indexed": false,
          "name": "keepAmount",
          "type": "uint256"
        }
      ],
      "name": "ChannelClaim",
      "type": "event"
    },
    {
      "anonymous": false,
      "inputs": [
        {
          "indexed": true,
          "name": "channelId",
          "type": "uint256"
        },
        {
          "indexed": false,
          "name": "nonce",
          "type": "uint256"
        },
        {
          "indexed": false,
          "name": "claimAmount",
          "type": "uint256"
        }
      ],
      "name": "ChannelSenderClaim",
      "type": "event"
    },
    {
      "anonymous": false,
      "inputs": [
        {
          "indexed": true,
          "name": "channelId",
          "type": "uint256"
        },
        {
          "indexed": false,
          "name": "newExpiration",
          "type": "uint256"
        }
      ],
      "name": "ChannelExtend",
      "type": "event"
    },
    {
      "anonymous": false,
      "inputs": [
        {
          "indexed": true,
          "name": "channelId",
          "type": "uint256"
        },
        {
          "indexed": false,
          "name": "additionalFunds",
          "type": "uint256"
        }
      ],
      "name": "ChannelAddFunds",
      "type": "event"
    },
    {
      "anonymous": false,
      "inputs": [
        {
          "indexed": true,
          "name": "sender",
          "type": "address"
        },
        {
          "indexed": false,
          "name": "amount",
          "type": "uint256"
        }
      ],
      "name": "DepositFunds",
      "type": "event"
    },
    {
      "anonymous": false,
      "inputs": [
        {
          "indexed": true,
          "name": "sender",
          "type": "address"
        },
        {
          "indexed": false,
          "name": "amount",
          "type": "uint256"
        }
      ],
      "name": "WithdrawFunds",
      "type": "event"
    },
    {
      "anonymous": false,
      "inputs": [
        {
          "indexed": true,
          "name": "sender",
          "type": "address"
        },
        {
          "indexed": true,
          "name": "receiver",
          "type": "address"
        },
        {
          "indexed": false,
          "name": "amount",
          "type": "uint256"
        }
      ],
      "name": "TransferFunds",
      "type": "event"
    },
    {
      "constant": false,
      "inputs": [
        {
          "name": "value",
          "type": "uint256"
        }
      ],
      "name": "deposit",
      "outputs": [
        {
          "name": "",
          "type": "bool"
        }
      ],
      "payable": false,
      "stateMutability": "nonpayable",
      "type": "function"
    },
    {
      "constant": false,
      "inputs": [
        {
          "name": "to",
          "type": "address"
        },
        {
          "name": "value",
          "type": "uint256"
        }
      ],
      "name": "depositTo",
      "outputs": [
        {
          "name": "",
          "type": "bool"
        }
      ],
      "payable": false,
      "stateMutability": "nonpayable",
      "type": "function"
    },
    {
      "constant": true,
      "inputs": [],
      "name": "getMsgSender",
      "outputs": [
        {
          "name": "",
          "type": "address"
        }
      ],
      "payable": false,
      "stateMutability": "view",
      "type": "function"
    },
    {
      "constant": false,
      "inputs": [
        {
          "name": "value",
          "type": "uint256"
        }
      ],
      "name": "withdraw",
      "outputs": [
        {
          "name": "",
          "type": "bool"
        }
      ],
      "payable": false,
      "stateMutability": "nonpayable",
      "type": "function"
    },
    {
      "constant": false,
      "inputs": [
        {
          "name": "receiver",
          "type": "address"
        },
        {
          "name": "value",
          "type": "uint256"
        }
      ],
      "name": "transfer",
      "outputs": [
        {
          "name": "",
          "type": "bool"
        }
      ],
      "payable": false,
      "stateMutability": "nonpayable",
      "type": "function"
    },
    {
      "constant": false,
      "inputs": [
        {
          "name": "signer",
          "type": "address"
        },
        {
          "name": "recipient",
          "type": "address"
        },
        {
          "name": "groupId",
          "type": "bytes32"
        },
        {
          "name": "value",
          "type": "uint256"
        },
        {
          "name": "expiration",
          "type": "uint256"
        }
      ],
      "name": "openChannel",
      "outputs": [
        {
          "name": "",
          "type": "bool"
        }
      ],
      "payable": false,
      "stateMutability": "nonpayable",
      "type": "function"
    },
    {
      "constant": false,
      "inputs": [
        {
          "name": "sender",
          "type": "address"
        },
        {
          "name": "signer",
          "type": "address"
        },
        {
          "name": "recipient",
          "type": "address"
        },
        {
          "name": "groupId",
          "type": "bytes32"
        },
        {
          "name": "value",
          "type": "uint256"
        },
        {
          "name": "expiration",
          "type": "uint256"
        },
        {
          "name": "messageNonce",
          "type": "uint256"
        },
        {
          "name": "v",
          "type": "uint8"
        },
        {
          "name": "r",
          "type": "bytes32"
        },
        {
          "name": "s",
          "type": "bytes32"
        }
      ],
      "name": "openChannelByThirdParty",
      "outputs": [
        {
          "name": "",
          "type": "bool"
        }
      ],
      "payable": false,
      "stateMutability": "nonpayable",
      "type": "function"
    },
    {
      "constant": false,
      "inputs": [
        {
          "name": "signer",
          "type": "address"
        },
        {
          "name": "recipient",
          "type": "address"
        },
        {
          "name": "groupId",
          "type": "bytes32"
        },
        {
          "name": "value",
          "type": "uint256"
        },
        {
          "name": "expiration",
          "type": "uint256"
        }
      ],
      "name": "depositAndOpenChannel",
      "outputs": [
        {
          "name": "",
          "type": "bool"
        }
      ],
      "payable": false,
      "stateMutability": "nonpayable",
      "type": "function"
    },
    {
      "constant": false,
      "inputs": [
        {
          "name": "channelIds",
          "type": "uint256[]"
        },
        {
          "name": "actualAmounts",
          "type": "uint256[]"
        },
        {
          "name": "plannedAmounts",
          "type": "uint256[]"
        },
        {
          "name": "isSendbacks",
          "type": "bool[]"
        },
        {
          "name": "v",
          "type": "uint8[]"
        },
        {
          "name": "r",
          "type": "bytes32[]"
        },
        {
          "name": "s",
          "type": "bytes32[]"
        }
      ],
      "name": "multiChannelClaim",
      "outputs": [],
      "payable": false,
      "stateMutability": "nonpayable",
      "type": "function"
    },
    {
      "constant": false,
      "inputs": [
        {
          "name": "channelId",
          "type": "uint256"
        },
        {
          "name": "actualAmount",
          "type": "uint256"
        },
        {
          "name": "plannedAmount",
          "type": "uint256"
        },
        {
          "name": "v",
          "type": "uint8"
        },
        {
          "name": "r",
          "type": "bytes32"
        },
        {
          "name": "s",
          "type": "bytes32"
        },
        {
          "name": "isSendback",
          "type": "bool"
        }
      ],
      "name": "channelClaim",
      "outputs": [],
      "payable": false,
      "stateMutability": "nonpayable",
      "type": "function"
    },
    {
      "constant": false,
      "inputs": [
        {
          "name": "channelId",
          "type": "uint256"
        },
        {
          "name": "newExpiration",
          "type": "uint256"
        }
      ],
      "name": "channelExtend",
      "outputs": [
        {
          "name": "",
          "type": "bool"
        }
      ],
      "payable": false,
      "stateMutability": "nonpayable",
      "type": "function"
    },
    {
      "constant": false,
      "inputs": [
        {
          "name": "channelId",
          "type": "uint256"
        },
        {
          "name": "amount",
          "type": "uint256"
        }
      ],
      "name": "channelAddFunds",
      "outputs": [
        {
          "name": "",
          "type": "bool"
        }
      ],
      "payable": false,
      "stateMutability": "nonpayable",
      "type": "function"
    },
    {
      "constant": false,
      "inputs": [
        {
          "name": "channelId",
          "type": "uint256"
        },
        {
          "name": "newExpiration",
          "type": "uint256"
        },
        {
          "name": "amount",
          "type": "uint256"
        }
      ],
      "name": "channelExtendAndAddFunds",
      "outputs": [],
      "payable": false,
      "stateMutability": "nonpayable",
      "type": "function"
    },
    {
      "constant": false,
      "inputs": [
        {
          "name": "channelId",
          "type": "uint256"
        }
      ],
      "name": "channelClaimTimeout",
      "outputs": [],
      "payable": false,
      "stateMutability": "nonpayable",
      "type": "function"
    }
  ],
  "bytecode": "0x608060405234801561001057600080fd5b50604051602080611efc833981016040525160038054600160a060020a031916600160a060020a03909216919091179055611eac806100506000396000f3006080604052600436106101065763ffffffff7c0100000000000000000000000000000000000000000000000000000000600035041663047df8f9811461010b5780630c19d0ec1461014f5780631d41f87c1461016f57806327e235e31461019e5780632e1a7d4d146101d157806345059a5d146101e95780635a028400146102045780637a6ce2e11461021c578063a9059cbb1461024d578063aa5f510a14610271578063b6b55f251461041c578063b8da092214610434578063baea65b51461047b578063da2a5b4f14610493578063e3b39250146104ae578063e5949b5d146104de578063f4606f001461053d578063fc0c546a14610552578063ffaad6a514610567575b600080fd5b34801561011757600080fd5b5061013b600160a060020a036004358116906024351660443560643560843561058b565b604080519115158252519081900360200190f35b34801561015b57600080fd5b5061016d600435602435604435610681565b005b34801561017b57600080fd5b5061016d60043560243560443560ff6064351660843560a43560c4351515610746565b3480156101aa57600080fd5b506101bf600160a060020a0360043516610b55565b60408051918252519081900360200190f35b3480156101dd57600080fd5b5061013b600435610b67565b3480156101f557600080fd5b5061013b600435602435610d68565b34801561021057600080fd5b5061013b600435610e88565b34801561022857600080fd5b50610231610e9d565b60408051600160a060020a039092168252519081900360200190f35b34801561025957600080fd5b5061013b600160a060020a0360043516602435610eac565b34801561027d57600080fd5b506040805160206004803580820135838102808601850190965280855261016d95369593946024949385019291829185019084908082843750506040805187358901803560208181028481018201909552818452989b9a998901989297509082019550935083925085019084908082843750506040805187358901803560208181028481018201909552818452989b9a998901989297509082019550935083925085019084908082843750506040805187358901803560208181028481018201909552818452989b9a998901989297509082019550935083925085019084908082843750506040805187358901803560208181028481018201909552818452989b9a998901989297509082019550935083925085019084908082843750506040805187358901803560208181028481018201909552818452989b9a998901989297509082019550935083925085019084908082843750506040805187358901803560208181028481018201909552818452989b9a998901989297509082019550935083925085019084908082843750949750610fd69650505050505050565b34801561042857600080fd5b5061013b600435611140565b34801561044057600080fd5b5061013b600160a060020a036004358116906024358116906044351660643560843560a43560c43560ff60e4351661010435610124356112cd565b34801561048757600080fd5b5061016d600435611672565b34801561049f57600080fd5b5061013b6004356024356117a8565b3480156104ba57600080fd5b5061013b600160a060020a03600435811690602435166044356064356084356118c4565b3480156104ea57600080fd5b506104f66004356119b8565b60408051978852600160a060020a03968716602089015294861687860152929094166060860152608085015260a084019290925260c0830191909152519081900360e00190f35b34801561054957600080fd5b506101bf611a03565b34801561055e57600080fd5b50610231611a09565b34801561057357600080fd5b5061013b600160a060020a0360043516602435611a18565b600061059683611140565b1515610612576040805160e560020a62461bcd02815260206004820152602860248201527f556e61626c6520746f206465706f73697420746f6b656e20746f20746865206360448201527f6f6e74726163742e000000000000000000000000000000000000000000000000606482015290519081900360840190fd5b61061f86868686866118c4565b1515610675576040805160e560020a62461bcd02815260206004820152601760248201527f556e61626c6520746f206f70656e206368616e6e656c2e000000000000000000604482015290519081900360640190fd5b50600195945050505050565b61068b8383610d68565b15156106e1576040805160e560020a62461bcd02815260206004820152601d60248201527f556e61626c6520746f20657874656e6420746865206368616e6e656c2e000000604482015290519081900360640190fd5b6106eb83826117a8565b1515610741576040805160e560020a62461bcd02815260206004820152601f60248201527f556e61626c6520746f206164642066756e647320746f206368616e6e656c2e00604482015290519081900360640190fd5b505050565b6000878152602081905260408120600581015490919081908911156107b5576040805160e560020a62461bcd02815260206004820152601b60248201527f496e73756666696369656e74206368616e6e656c20616d6f756e740000000000604482015290519081900360640190fd5b6003830154600160a060020a03163314610819576040805160e560020a62461bcd02815260206004820152601160248201527f496e76616c696420726563697069656e74000000000000000000000000000000604482015290519081900360640190fd5b87891115610871576040805160e560020a62461bcd02815260206004820152601560248201527f496e76616c69642061637475616c20616d6f756e740000000000000000000000604482015290519081900360640190fd5b8254604080517f5f5f4d50455f636c61696d5f6d657373616765000000000000000000000000006020808301919091526c0100000000000000000000000030026033830152604782018e9052606782019390935260878082018c90528251808303909101815260a7909101918290528051610944939192918291908401908083835b602083106109125780518252601f1990920191602091820191016108f3565b6001836020036101000a0380198251168184511680821785525050505050509050019150506040518091039020611ba8565b604080516000808252602080830180855285905260ff8c1683850152606083018b9052608083018a9052925193955060019360a08084019493601f19830193908390039091019190865af11580156109a0573d6000803e3d6000fd5b5050604051601f1901516002850154909250600160a060020a038084169116149050806109dc57506001830154600160a060020a038281169116145b1515610a32576040805160e560020a62461bcd02815260206004820152601160248201527f496e76616c6964207369676e6174757265000000000000000000000000000000604482015290519081900360640190fd5b6005830154610a47908a63ffffffff611c5216565b600584015533600090815260016020526040902054610a6c908a63ffffffff611c6916565b336000908152600160205260409020558315610ae957610a8b8a611c82565b8254600584015460408051928352602083018c90528281018b90526060830191909152600060808301525133918c917f77c3504a57863d978ba4c28ea297490f1f4814365f5ed32b35cbf5b695db003c9181900360a00190a3610b49565b8254600101808455600584015460408051928352602083018c90528281018b90526000606084015260808301919091525133918c917f77c3504a57863d978ba4c28ea297490f1f4814365f5ed32b35cbf5b695db003c9181900360a00190a35b50505050505050505050565b60016020526000908152604090205481565b33600090815260016020526040812054821115610be2576040805160e560020a62461bcd0281526020600482015260256024820152600080516020611e6183398151915260448201527f726163742e000000000000000000000000000000000000000000000000000000606482015290519081900360840190fd5b600354604080517fa9059cbb000000000000000000000000000000000000000000000000000000008152336004820152602481018590529051600160a060020a039092169163a9059cbb916044808201926020929091908290030181600087803b158015610c4f57600080fd5b505af1158015610c63573d6000803e3d6000fd5b505050506040513d6020811015610c7957600080fd5b50511515610cf7576040805160e560020a62461bcd02815260206004820152602960248201527f556e61626c6520746f207472616e7366657220746f6b656e20746f207468652060448201527f636f6e74726163742e0000000000000000000000000000000000000000000000606482015290519081900360840190fd5b33600090815260016020526040902054610d17908363ffffffff611c5216565b33600081815260016020908152604091829020939093558051858152905191927f21901fa892c430ea8bd38b9390225ac8e67eac75ee10ffba16feefc539a288f992918290030190a2506001919050565b60008281526020819052604081206001810154600160a060020a03163314610dda576040805160e560020a62461bcd02815260206004820152601560248201527f53656e646572206e6f7420617574686f72697a65640000000000000000000000604482015290519081900360640190fd5b6006810154831015610e36576040805160e560020a62461bcd02815260206004820152601360248201527f496e76616c69642065787069726174696f6e2e00000000000000000000000000604482015290519081900360640190fd5b600084815260208181526040918290206006018590558151858152915186927ff8d4e64f6b2b3db6aaf38b319e259285a48ecd0c5bc0115c9928aba297c7342092908290030190a25060019392505050565b60046020526000908152604090205460ff1681565b600354600160a060020a031690565b33600090815260016020526040812054821115610f26576040805160e560020a62461bcd02815260206004820152602480820152600080516020611e6183398151915260448201527f7261637400000000000000000000000000000000000000000000000000000000606482015290519081900360840190fd5b33600090815260016020526040902054610f46908363ffffffff611c5216565b3360009081526001602052604080822092909255600160a060020a03851681522054610f78908363ffffffff611c6916565b600160a060020a0384166000818152600160209081526040918290209390935580518581529051919233927f5a0155838afb0f859197785e575b9ad1afeb456c6e522b6f632ee8465941315e9281900390910190a350600192915050565b8651855160009082148015610feb5750818851145b8015610ff75750818651145b80156110035750818551145b801561100f5750818451145b801561101b5750818351145b1515611071576040805160e560020a62461bcd02815260206004820152601c60248201527f496e76616c69642066756e6374696f6e20706172616d65746572732e00000000604482015290519081900360640190fd5b5060005b818110156111355761112d898281518110151561108e57fe5b9060200190602002015189838151811015156110a657fe5b9060200190602002015189848151811015156110be57fe5b9060200190602002015188858151811015156110d657fe5b9060200190602002015188868151811015156110ee57fe5b90602001906020020151888781518110151561110657fe5b906020019060200201518c8881518110151561111e57fe5b90602001906020020151610746565b600101611075565b505050505050505050565b600354604080517f23b872dd000000000000000000000000000000000000000000000000000000008152336004820152600160a060020a03909216602483018190526044830184905290516000926323b872dd91606480830192602092919082900301818787803b1580156111b457600080fd5b505af11580156111c8573d6000803e3d6000fd5b505050506040513d60208110156111de57600080fd5b5051151561125c576040805160e560020a62461bcd02815260206004820152602960248201527f556e61626c6520746f207472616e7366657220746f6b656e20746f207468652060448201527f636f6e74726163742e0000000000000000000000000000000000000000000000606482015290519081900360840190fd5b3360009081526001602052604090205461127c908363ffffffff611c6916565b33600081815260016020908152604091829020939093558051858152905191927fd241e73300212f6df233a8e6d3146b88a9d4964e06621d54b5ff6afeba7b1b8892918290030190a2506001919050565b336000908152600160205260408120548190881115611336576040805160e560020a62461bcd02815260206004820152601460248201527f496e73756666696369656e742062616c616e6365000000000000000000000000604482015290519081900360640190fd5b61147330338d8d8d8d8d8d60405160200180807f5f5f6f70656e4368616e6e656c4279546869726450617274790000000000000081525060190189600160a060020a0316600160a060020a03166c0100000000000000000000000002815260140188600160a060020a0316600160a060020a03166c0100000000000000000000000002815260140187600160a060020a0316600160a060020a03166c0100000000000000000000000002815260140186600160a060020a0316600160a060020a03166c01000000000000000000000000028152601401856000191660001916815260200184815260200183815260200182815260200198505050505050505050604051602081830303815290604052604051808280519060200190808383602083106109125780518252601f1990920191602091820191016108f3565b60008181526004602052604090205490915060ff16156114dd576040805160e560020a62461bcd02815260206004820152601f60248201527f5369676e61747572652068617320616c7265616479206265656e207573656400604482015290519081900360640190fd5b600160046000836000191660001916815260200190815260200160002060006101000a81548160ff0219169083151502179055508b600160a060020a0316600182878787604051600081526020016040526040518085600019166000191681526020018460ff1660ff1681526020018360001916600019168152602001826000191660001916815260200194505050505060206040516020810390808403906000865af1158015611592573d6000803e3d6000fd5b50505060206040510351600160a060020a03161415156115fc576040805160e560020a62461bcd02815260206004820152601160248201527f496e76616c6964207369676e6174757265000000000000000000000000000000604482015290519081900360640190fd5b61160a8c8c8c8c8c8c611cf2565b1515611660576040805160e560020a62461bcd02815260206004820152601660248201527f556e61626c6520746f206f70656e206368616e6e656c00000000000000000000604482015290519081900360640190fd5b5060019b9a5050505050505050505050565b600081815260208190526040902060010154600160a060020a031633146116e3576040805160e560020a62461bcd02815260206004820152601660248201527f53656e646572206e6f7420617574686f72697a65642e00000000000000000000604482015290519081900360640190fd5b60008181526020819052604090206006015443101561174c576040805160e560020a62461bcd02815260206004820152601760248201527f436c61696d2063616c6c656420746f6f206561726c792e000000000000000000604482015290519081900360640190fd5b61175581611c82565b600081815260208181526040918290208054600590910154835191825291810191909152815183927f592ba8545b0ef2ef56ac54c4db27df2bdbb2a60acc1c5a4ac134eccc20cb8096928290030190a250565b33600090815260016020526040812054821115611822576040805160e560020a62461bcd02815260206004820152602480820152600080516020611e6183398151915260448201527f7261637400000000000000000000000000000000000000000000000000000000606482015290519081900360840190fd5b33600090815260016020526040902054611842908363ffffffff611c5216565b336000908152600160209081526040808320939093558582528190522060050154611873908363ffffffff611c6916565b60008481526020818152604091829020600501929092558051848152905185927fb0e2286f86435d8f98d9cf1c908b693792eb905dd03cd40d2b1d23a3e5311a40928290030190a250600192915050565b3360009081526001602052604081205483111561193f576040805160e560020a62461bcd0281526020600482015260256024820152600080516020611e6183398151915260448201527f726163742e000000000000000000000000000000000000000000000000000000606482015290519081900360840190fd5b600160a060020a038616151561195457600080fd5b611962338787878787611cf2565b1515610675576040805160e560020a62461bcd02815260206004820152601660248201527f556e61626c6520746f206f70656e206368616e6e656c00000000000000000000604482015290519081900360640190fd5b60006020819052908152604090208054600182015460028301546003840154600485015460058601546006909601549495600160a060020a0394851695938516949092169290919087565b60025481565b600354600160a060020a031681565b600354604080517f23b872dd000000000000000000000000000000000000000000000000000000008152600160a060020a038581166004830152909216602483018190526044830184905290516000926323b872dd91606480830192602092919082900301818787803b158015611a8e57600080fd5b505af1158015611aa2573d6000803e3d6000fd5b505050506040513d6020811015611ab857600080fd5b50511515611b36576040805160e560020a62461bcd02815260206004820152602960248201527f556e61626c6520746f207472616e7366657220746f6b656e20746f207468652060448201527f636f6e74726163742e0000000000000000000000000000000000000000000000606482015290519081900360840190fd5b33600090815260016020526040902054611b56908363ffffffff611c6916565b33600081815260016020908152604091829020939093558051858152905191927fd241e73300212f6df233a8e6d3146b88a9d4964e06621d54b5ff6afeba7b1b8892918290030190a250600192915050565b604080517f19457468657265756d205369676e6564204d6573736167653a0a333200000000602080830191909152603c80830185905283518084039091018152605c909201928390528151600093918291908401908083835b60208310611c205780518252601f199092019160209182019101611c01565b5181516020939093036101000a6000190180199091169216919091179052604051920182900390912095945050505050565b60008083831115611c6257600080fd5b5050900390565b600082820183811015611c7b57600080fd5b9392505050565b6000818152602081815260408083206005810154600180830154600160a060020a03168652909352922054611cbc9163ffffffff611c6916565b600182810154600160a060020a031660009081526020829052604081209290925560058301829055825401825560069091015550565b6040805160e0810182526000808252600160a060020a03808a1660208085019182528a83168587019081528a841660608701908152608087018b815260a088018b815260c089018b8152600280548a528987528b8a209a518b5596516001808c018054928b1673ffffffffffffffffffffffffffffffffffffffff199384161790559551978b018054988a1698821698909817909755925160038a01805491909816961695909517909555935160048701559151600586015591516006909401939093553382529190915290812054611dd1908463ffffffff611c5216565b33600090815260016020908152604080832093909355600254835190815290810191909152600160a060020a038881168284015260608201869052608082018590529151869288811692908b16917f172899db3034d5e4e68a2873998cc66a59bad4610fa6319a51f31f75e84452b79181900360a00190a45060028054600190810190915596955050505050505600496e73756666696369656e742062616c616e636520696e2074686520636f6e74a165627a7a723058202902be19420137f2fe5ea860f10cd905d40cdfcc8507a94ffdea0bd2d5c1880d0029",
  "source": "pragma solidity ^0.4.24;\n\nimport \"./IDO.sol\";\nimport \"openzeppelin-solidity/contracts/math/SafeMath.sol\";\n\ncontract MultiPartyEscrow {\n    using SafeMath for uint256;\n\n    //TODO: we could use uint64 for value, nonce and expiration (it could be cheaper to store but more expensive to operate with)\n    //the full ID of \"atomic\" payment channel = \"[this, channelId, nonce]\"\n    struct PaymentChannel {\n        uint256 nonce; // \"nonce\" of the channel (by changing nonce we effectivly close the old channel ([this, channelId, oldNonce])\n        //  and open the new channel [this, channelId, newNonce])\n        //!!! nonce also prevents race conditon between channelClaim and channelExtendAndAddFunds\n        address sender; // The account sending payments.\n        address signer; // signer on behalf of sender\n        address recipient; // The account receiving the payments.\n        bytes32 groupId; // id of group of replicas who share the same payment channel\n        // You should generate groupId randomly in order to prevent\n        // two PaymentChannel with the same [recipient, groupId]\n        uint256 value; // Total amount of tokens deposited to the channel.\n        uint256 expiration; // Timeout (in block numbers) in case the recipient never closes.\n        // if block.number > expiration then sender can call channelClaimTimeout\n    }\n\n    mapping(uint256 => PaymentChannel) public channels;\n    mapping(address => uint256) public balances; //tokens which have been deposit but haven't been escrowed in the channels\n\n    uint256 public nextChannelId; //id of the next channel (and size of channels)\n\n    IDO public token; // Address of token contract\n\n    //already used messages for openChannelByThirdParty in order to prevent replay attack\n    mapping(bytes32 => bool) public usedMessages;\n\n    // Events\n    event ChannelOpen(\n        uint256 channelId,\n        uint256 nonce,\n        address indexed sender,\n        address signer,\n        address indexed recipient,\n        bytes32 indexed groupId,\n        uint256 amount,\n        uint256 expiration\n    );\n    event ChannelClaim(\n        uint256 indexed channelId,\n        uint256 nonce,\n        address indexed recipient,\n        uint256 claimAmount,\n        uint256 plannedAmount,\n        uint256 sendBackAmount,\n        uint256 keepAmount\n    );\n    event ChannelSenderClaim(\n        uint256 indexed channelId,\n        uint256 nonce,\n        uint256 claimAmount\n    );\n    event ChannelExtend(uint256 indexed channelId, uint256 newExpiration);\n    event ChannelAddFunds(uint256 indexed channelId, uint256 additionalFunds);\n    event DepositFunds(address indexed sender, uint256 amount);\n    event WithdrawFunds(address indexed sender, uint256 amount);\n    event TransferFunds(\n        address indexed sender,\n        address indexed receiver,\n        uint256 amount\n    );\n\n    constructor(address _token) public {\n        token = IDO(_token);\n    }\n\n    function deposit(uint256 value) public returns (bool) {\n        require(\n             token.transferFrom(msg.sender, token, value),\n             \"Unable to transfer token to the contract.\"\n        );\n        balances[msg.sender] = balances[msg.sender].add(value);\n        emit DepositFunds(msg.sender, value);\n        return true;\n    }\n\n    function depositTo(address to, uint256 value) public returns (bool) {\n        require(\n             token.transferFrom(to, token, value),\n             \"Unable to transfer token to the contract.\"\n        );\n        balances[msg.sender] = balances[msg.sender].add(value);\n        emit DepositFunds(msg.sender, value);\n        return true;\n    }    \n\n    function getMsgSender() public view returns (IDO) {\n        return token;\n    }\n\n    function withdraw(uint256 value) public returns (bool) {\n        require(\n            balances[msg.sender] >= value,\n            \"Insufficient balance in the contract.\"\n        );\n        require(\n            token.transfer(msg.sender, value),\n            \"Unable to transfer token to the contract.\"\n        );\n        balances[msg.sender] = balances[msg.sender].sub(value);\n        emit WithdrawFunds(msg.sender, value);\n        return true;\n    }\n\n    function transfer(address receiver, uint256 value) public returns (bool) {\n        \n        require(\n            balances[msg.sender] >= value,\n            \"Insufficient balance in the contract\"\n        );\n        balances[msg.sender] = balances[msg.sender].sub(value);\n        balances[receiver] = balances[receiver].add(value);\n\n        emit TransferFunds(msg.sender, receiver, value);\n        //selfdestruct(sender);\n        return true;\n    }\n\n    //open a channel, token should be already being deposit\n    //openChannel should be run only once for given sender, recipient, groupId\n    //channel can be reused even after channelClaim(..., isSendback=true)\n    function openChannel(\n        address signer,\n        address recipient,\n        bytes32 groupId,\n        uint256 value,\n        uint256 expiration\n    ) public returns (bool) {\n        require(\n            balances[msg.sender] >= value,\n            \"Insufficient balance in the contract.\"\n        );\n        require(signer != address(0));\n\n        require(\n            _openChannel(\n                msg.sender,\n                signer,\n                recipient,\n                groupId,\n                value,\n                expiration\n            ),\n            \"Unable to open channel\"\n        );\n        return true;\n    }\n\n    //open a channel on behalf of the user. Sender should send the signed permission to open the channel\n    function openChannelByThirdParty(\n        address sender,\n        address signer,\n        address recipient,\n        bytes32 groupId,\n        uint256 value,\n        uint256 expiration,\n        uint256 messageNonce,\n        uint8 v,\n        bytes32 r,\n        bytes32 s\n    ) public returns (bool) {\n        require(balances[msg.sender] >= value, \"Insufficient balance\");\n\n        // Blocks seems to take variable time based on network congestion for now removing it. Message nounce will be a blocknumber\n        //require(messageNonce >= block.number-5 && messageNonce <= block.number+5, \"Invalid message nonce\");\n\n        //compose the message which was signed\n        bytes32 message = prefixed(\n            keccak256(\n                abi.encodePacked(\n                    \"__openChannelByThirdParty\",\n                    this,\n                    msg.sender,\n                    signer,\n                    recipient,\n                    groupId,\n                    value,\n                    expiration,\n                    messageNonce\n                )\n            )\n        );\n\n        //check for replay attack (message can be used only once)\n        require(!usedMessages[message], \"Signature has already been used\");\n        usedMessages[message] = true;\n\n        // check that the signature is from the \"sender\"\n        require(ecrecover(message, v, r, s) == sender, \"Invalid signature\");\n\n        require(\n            _openChannel(sender, signer, recipient, groupId, value, expiration),\n            \"Unable to open channel\"\n        );\n\n        return true;\n    }\n\n    function _openChannel(\n        address sender,\n        address signer,\n        address recipient,\n        bytes32 groupId,\n        uint256 value,\n        uint256 expiration\n    ) private returns (bool) {\n        channels[nextChannelId] = PaymentChannel({\n            nonce: 0,\n            sender: sender,\n            signer: signer,\n            recipient: recipient,\n            groupId: groupId,\n            value: value,\n            expiration: expiration\n        });\n\n        balances[msg.sender] = balances[msg.sender].sub(value);\n        emit ChannelOpen(\n            nextChannelId,\n            0,\n            sender,\n            signer,\n            recipient,\n            groupId,\n            value,\n            expiration\n        );\n        nextChannelId += 1;\n        return true;\n    }\n\n    function depositAndOpenChannel(\n        address signer,\n        address recipient,\n        bytes32 groupId,\n        uint256 value,\n        uint256 expiration\n    ) public returns (bool) {\n        require(deposit(value), \"Unable to deposit token to the contract.\");\n        require(\n            openChannel(signer, recipient, groupId, value, expiration),\n            \"Unable to open channel.\"\n        );\n        return true;\n    }\n\n    function _channelSendbackAndReopenSuspended(uint256 channelId) private {\n        PaymentChannel storage channel = channels[channelId];\n\n        balances[channel.sender] = balances[channel.sender].add(channel.value);\n        channel.value = 0;\n        channel.nonce += 1;\n        channel.expiration = 0;\n    }\n\n    /**\n     * @dev function to claim multiple channels at a time. Needs to send limited channels per call\n     * @param channelIds list of channel Ids\n     * @param actualAmounts list of actual amounts should be aligned with channel ids index\n     * @param plannedAmounts list of planned amounts should be aligned with channel ids index\n     * @param isSendbacks list of sendbacks flags\n     * @param v channel senders signatures in V R S for each channel\n     * @param r channel senders signatures in V R S for each channel\n     * @param s channel senders signatures in V R S for each channel\n     */\n    function multiChannelClaim(\n        uint256[] channelIds,\n        uint256[] actualAmounts,\n        uint256[] plannedAmounts,\n        bool[] isSendbacks,\n        uint8[] v,\n        bytes32[] r,\n        bytes32[] s\n    ) public {\n        uint256 len = channelIds.length;\n\n        require(\n            plannedAmounts.length == len &&\n                actualAmounts.length == len &&\n                isSendbacks.length == len &&\n                v.length == len &&\n                r.length == len &&\n                s.length == len,\n            \"Invalid function parameters.\"\n        );\n        for (uint256 i = 0; i < len; i++) {\n            channelClaim(\n                channelIds[i],\n                actualAmounts[i],\n                plannedAmounts[i],\n                v[i],\n                r[i],\n                s[i],\n                isSendbacks[i]\n            );\n        }\n    }\n\n    function channelClaim(\n        uint256 channelId,\n        uint256 actualAmount,\n        uint256 plannedAmount,\n        uint8 v,\n        bytes32 r,\n        bytes32 s,\n        bool isSendback\n    ) public {\n        PaymentChannel storage channel = channels[channelId];\n        require(actualAmount <= channel.value, \"Insufficient channel amount\");\n        require(msg.sender == channel.recipient, \"Invalid recipient\");\n        require(actualAmount <= plannedAmount, \"Invalid actual amount\");\n\n        //compose the message which was signed\n        bytes32 message = prefixed(\n            keccak256(\n                abi.encodePacked(\n                    \"__MPE_claim_message\",\n                    this,\n                    channelId,\n                    channel.nonce,\n                    plannedAmount\n                )\n            )\n        );\n        // check that the signature is from the signer\n        address signAddress = ecrecover(message, v, r, s);\n        require(\n            signAddress == channel.signer || signAddress == channel.sender,\n            \"Invalid signature\"\n        );\n\n        //transfer amount from the channel to the sender\n        channel.value = channel.value.sub(actualAmount);\n        balances[msg.sender] = balances[msg.sender].add(actualAmount);\n\n        if (isSendback) {\n            _channelSendbackAndReopenSuspended(channelId);\n            emit ChannelClaim(\n                channelId,\n                channel.nonce,\n                msg.sender,\n                actualAmount,\n                plannedAmount,\n                channel.value,\n                0\n            );\n        } else {\n            //reopen new \"channel\", without sending back funds to \"sender\"\n            channel.nonce += 1;\n            emit ChannelClaim(\n                channelId,\n                channel.nonce,\n                msg.sender,\n                actualAmount,\n                plannedAmount,\n                0,\n                channel.value\n            );\n        }\n    }\n\n    /// the sender can extend the expiration at any time\n    function channelExtend(uint256 channelId, uint256 newExpiration)\n        public\n        returns (bool)\n    {\n        PaymentChannel storage channel = channels[channelId];\n\n        require(msg.sender == channel.sender, \"Sender not authorized\");\n        require(newExpiration >= channel.expiration, \"Invalid expiration.\");\n\n        channels[channelId].expiration = newExpiration;\n\n        emit ChannelExtend(channelId, newExpiration);\n        return true;\n    }\n\n    /// the sender could add funds to the channel at any time\n    /// any one can fund the channel irrespective of the sender\n    function channelAddFunds(uint256 channelId, uint256 amount)\n        public\n        returns (bool)\n    {\n        require(\n            balances[msg.sender] >= amount,\n            \"Insufficient balance in the contract\"\n        );\n        //tranfser amount from sender to the channel\n        balances[msg.sender] = balances[msg.sender].sub(amount);\n        channels[channelId].value = channels[channelId].value.add(amount);\n\n        emit ChannelAddFunds(channelId, amount);\n        return true;\n    }\n\n    function channelExtendAndAddFunds(\n        uint256 channelId,\n        uint256 newExpiration,\n        uint256 amount\n    ) public {\n        require(\n            channelExtend(channelId, newExpiration),\n            \"Unable to extend the channel.\"\n        );\n        require(\n            channelAddFunds(channelId, amount),\n            \"Unable to add funds to channel.\"\n        );\n    }\n\n    // sender can claim refund if the timeout is reached\n    function channelClaimTimeout(uint256 channelId) public {\n        require(\n            msg.sender == channels[channelId].sender,\n            \"Sender not authorized.\"\n        );\n        require(\n            block.number >= channels[channelId].expiration,\n            \"Claim called too early.\"\n        );\n        _channelSendbackAndReopenSuspended(channelId);\n\n        emit ChannelSenderClaim(\n            channelId,\n            channels[channelId].nonce,\n            channels[channelId].value\n        );\n    }\n\n    /// builds a prefixed hash to mimic the behavior of ethSign.\n    function prefixed(bytes32 hash) internal pure returns (bytes32) {\n        return\n            keccak256(\n                abi.encodePacked(\"\\x19Ethereum Signed Message:\\n32\", hash)\n            );\n    }\n}\n",
  "sourcePath": "/home/jeffrey/token/ido-smartcontract/contracts/payment-channel.sol",
  "compiler": {
    "name": "solc",
    "version": "0.4.24+commit.e67f0147.Emscripten.clang"
  },
  "schemaVersion": "3.2.5",
  "updatedAt": "2020-10-07T15:03:23.756Z",
  "networkType": "ethereum",
  "devdoc": {
    "methods": {
      "multiChannelClaim(uint256[],uint256[],uint256[],bool[],uint8[],bytes32[],bytes32[])": {
        "details": "function to claim multiple channels at a time. Needs to send limited channels per call",
        "params": {
          "actualAmounts": "list of actual amounts should be aligned with channel ids index",
          "channelIds": "list of channel Ids",
          "isSendbacks": "list of sendbacks flags",
          "plannedAmounts": "list of planned amounts should be aligned with channel ids index",
          "r": "channel senders signatures in V R S for each channel",
          "s": "channel senders signatures in V R S for each channel",
          "v": "channel senders signatures in V R S for each channel"
        }
      }
    }
  },
  "userdoc": {
    "methods": {
      "channelAddFunds(uint256,uint256)": {
        "notice": "the sender could add funds to the channel at any time any one can fund the channel irrespective of the sender"
      },
      "channelExtend(uint256,uint256)": {
        "notice": "the sender can extend the expiration at any time"
      }
    }
  }
}